{
  "_format": "hh-sol-artifact-1",
  "contractName": "ChronoClash",
  "sourceName": "contracts/ChronoClash.sol",
  "abi": [
    {
      "inputs": [
        {
          "internalType": "string",
          "name": "_metadataURI",
          "type": "string"
        }
      ],
      "stateMutability": "nonpayable",
      "type": "constructor"
    },
    {
      "anonymous": false,
      "inputs": [
        {
          "indexed": true,
          "internalType": "address",
          "name": "account",
          "type": "address"
        },
        {
          "indexed": true,
          "internalType": "address",
          "name": "operator",
          "type": "address"
        },
        {
          "indexed": false,
          "internalType": "bool",
          "name": "approved",
          "type": "bool"
        }
      ],
      "name": "ApprovalForAll",
      "type": "event"
    },
    {
      "anonymous": false,
      "inputs": [
        {
          "indexed": false,
          "internalType": "string",
          "name": "battleName",
          "type": "string"
        },
        {
          "indexed": true,
          "internalType": "address",
          "name": "winner",
          "type": "address"
        },
        {
          "indexed": true,
          "internalType": "address",
          "name": "loser",
          "type": "address"
        }
      ],
      "name": "BattleEnded",
      "type": "event"
    },
    {
      "anonymous": false,
      "inputs": [
        {
          "indexed": true,
          "internalType": "string",
          "name": "battleName",
          "type": "string"
        },
        {
          "indexed": true,
          "internalType": "bool",
          "name": "isFirstMove",
          "type": "bool"
        }
      ],
      "name": "BattleMove",
      "type": "event"
    },
    {
      "anonymous": false,
      "inputs": [
        {
          "indexed": false,
          "internalType": "string",
          "name": "battleName",
          "type": "string"
        },
        {
          "indexed": true,
          "internalType": "address",
          "name": "player1",
          "type": "address"
        },
        {
          "indexed": true,
          "internalType": "address",
          "name": "player2",
          "type": "address"
        }
      ],
      "name": "NewBattle",
      "type": "event"
    },
    {
      "anonymous": false,
      "inputs": [
        {
          "indexed": true,
          "internalType": "address",
          "name": "owner",
          "type": "address"
        },
        {
          "indexed": false,
          "internalType": "uint256",
          "name": "id",
          "type": "uint256"
        },
        {
          "indexed": false,
          "internalType": "uint256",
          "name": "attackStrength",
          "type": "uint256"
        },
        {
          "indexed": false,
          "internalType": "uint256",
          "name": "defenseStrength",
          "type": "uint256"
        }
      ],
      "name": "NewGameToken",
      "type": "event"
    },
    {
      "anonymous": false,
      "inputs": [
        {
          "indexed": true,
          "internalType": "address",
          "name": "owner",
          "type": "address"
        },
        {
          "indexed": false,
          "internalType": "string",
          "name": "name",
          "type": "string"
        }
      ],
      "name": "NewPlayer",
      "type": "event"
    },
    {
      "anonymous": false,
      "inputs": [
        {
          "indexed": true,
          "internalType": "address",
          "name": "previousOwner",
          "type": "address"
        },
        {
          "indexed": true,
          "internalType": "address",
          "name": "newOwner",
          "type": "address"
        }
      ],
      "name": "OwnershipTransferred",
      "type": "event"
    },
    {
      "anonymous": false,
      "inputs": [
        {
          "indexed": false,
          "internalType": "address[2]",
          "name": "damagedPlayers",
          "type": "address[2]"
        }
      ],
      "name": "RoundEnded",
      "type": "event"
    },
    {
      "anonymous": false,
      "inputs": [
        {
          "indexed": true,
          "internalType": "address",
          "name": "operator",
          "type": "address"
        },
        {
          "indexed": true,
          "internalType": "address",
          "name": "from",
          "type": "address"
        },
        {
          "indexed": true,
          "internalType": "address",
          "name": "to",
          "type": "address"
        },
        {
          "indexed": false,
          "internalType": "uint256[]",
          "name": "ids",
          "type": "uint256[]"
        },
        {
          "indexed": false,
          "internalType": "uint256[]",
          "name": "values",
          "type": "uint256[]"
        }
      ],
      "name": "TransferBatch",
      "type": "event"
    },
    {
      "anonymous": false,
      "inputs": [
        {
          "indexed": true,
          "internalType": "address",
          "name": "operator",
          "type": "address"
        },
        {
          "indexed": true,
          "internalType": "address",
          "name": "from",
          "type": "address"
        },
        {
          "indexed": true,
          "internalType": "address",
          "name": "to",
          "type": "address"
        },
        {
          "indexed": false,
          "internalType": "uint256",
          "name": "id",
          "type": "uint256"
        },
        {
          "indexed": false,
          "internalType": "uint256",
          "name": "value",
          "type": "uint256"
        }
      ],
      "name": "TransferSingle",
      "type": "event"
    },
    {
      "anonymous": false,
      "inputs": [
        {
          "indexed": false,
          "internalType": "string",
          "name": "value",
          "type": "string"
        },
        {
          "indexed": true,
          "internalType": "uint256",
          "name": "id",
          "type": "uint256"
        }
      ],
      "name": "URI",
      "type": "event"
    },
    {
      "inputs": [],
      "name": "ANATE",
      "outputs": [
        {
          "internalType": "uint256",
          "name": "",
          "type": "uint256"
        }
      ],
      "stateMutability": "view",
      "type": "function"
    },
    {
      "inputs": [],
      "name": "MATEX",
      "outputs": [
        {
          "internalType": "uint256",
          "name": "",
          "type": "uint256"
        }
      ],
      "stateMutability": "view",
      "type": "function"
    },
    {
      "inputs": [],
      "name": "MAX_ATTACK_DEFEND_STRENGTH",
      "outputs": [
        {
          "internalType": "uint256",
          "name": "",
          "type": "uint256"
        }
      ],
      "stateMutability": "view",
      "type": "function"
    },
    {
      "inputs": [],
      "name": "MUBS",
      "outputs": [
        {
          "internalType": "uint256",
          "name": "",
          "type": "uint256"
        }
      ],
      "stateMutability": "view",
      "type": "function"
    },
    {
      "inputs": [],
      "name": "ROCCO",
      "outputs": [
        {
          "internalType": "uint256",
          "name": "",
          "type": "uint256"
        }
      ],
      "stateMutability": "view",
      "type": "function"
    },
    {
      "inputs": [],
      "name": "ROQEEBAH",
      "outputs": [
        {
          "internalType": "uint256",
          "name": "",
          "type": "uint256"
        }
      ],
      "stateMutability": "view",
      "type": "function"
    },
    {
      "inputs": [],
      "name": "TEEBLINKS",
      "outputs": [
        {
          "internalType": "uint256",
          "name": "",
          "type": "uint256"
        }
      ],
      "stateMutability": "view",
      "type": "function"
    },
    {
      "inputs": [
        {
          "internalType": "uint8",
          "name": "_choice",
          "type": "uint8"
        },
        {
          "internalType": "string",
          "name": "_battleName",
          "type": "string"
        }
      ],
      "name": "attackOrDefendChoice",
      "outputs": [],
      "stateMutability": "nonpayable",
      "type": "function"
    },
    {
      "inputs": [
        {
          "internalType": "address",
          "name": "account",
          "type": "address"
        },
        {
          "internalType": "uint256",
          "name": "id",
          "type": "uint256"
        }
      ],
      "name": "balanceOf",
      "outputs": [
        {
          "internalType": "uint256",
          "name": "",
          "type": "uint256"
        }
      ],
      "stateMutability": "view",
      "type": "function"
    },
    {
      "inputs": [
        {
          "internalType": "address[]",
          "name": "accounts",
          "type": "address[]"
        },
        {
          "internalType": "uint256[]",
          "name": "ids",
          "type": "uint256[]"
        }
      ],
      "name": "balanceOfBatch",
      "outputs": [
        {
          "internalType": "uint256[]",
          "name": "",
          "type": "uint256[]"
        }
      ],
      "stateMutability": "view",
      "type": "function"
    },
    {
      "inputs": [],
      "name": "baseURI",
      "outputs": [
        {
          "internalType": "string",
          "name": "",
          "type": "string"
        }
      ],
      "stateMutability": "view",
      "type": "function"
    },
    {
      "inputs": [
        {
          "internalType": "string",
          "name": "",
          "type": "string"
        }
      ],
      "name": "battleInfo",
      "outputs": [
        {
          "internalType": "uint256",
          "name": "",
          "type": "uint256"
        }
      ],
      "stateMutability": "view",
      "type": "function"
    },
    {
      "inputs": [
        {
          "internalType": "uint256",
          "name": "",
          "type": "uint256"
        }
      ],
      "name": "battles",
      "outputs": [
        {
          "internalType": "enum ChronoClash.BattleStatus",
          "name": "battleStatus",
          "type": "uint8"
        },
        {
          "internalType": "bytes32",
          "name": "battleHash",
          "type": "bytes32"
        },
        {
          "internalType": "string",
          "name": "name",
          "type": "string"
        },
        {
          "internalType": "address",
          "name": "winner",
          "type": "address"
        }
      ],
      "stateMutability": "view",
      "type": "function"
    },
    {
      "inputs": [
        {
          "internalType": "string",
          "name": "_name",
          "type": "string"
        }
      ],
      "name": "createBattle",
      "outputs": [
        {
          "components": [
            {
              "internalType": "enum ChronoClash.BattleStatus",
              "name": "battleStatus",
              "type": "uint8"
            },
            {
              "internalType": "bytes32",
              "name": "battleHash",
              "type": "bytes32"
            },
            {
              "internalType": "string",
              "name": "name",
              "type": "string"
            },
            {
              "internalType": "address[2]",
              "name": "players",
              "type": "address[2]"
            },
            {
              "internalType": "uint8[2]",
              "name": "moves",
              "type": "uint8[2]"
            },
            {
              "internalType": "address",
              "name": "winner",
              "type": "address"
            }
          ],
          "internalType": "struct ChronoClash.Battle",
          "name": "",
          "type": "tuple"
        }
      ],
      "stateMutability": "nonpayable",
      "type": "function"
    },
    {
      "inputs": [
        {
          "internalType": "string",
          "name": "_name",
          "type": "string"
        }
      ],
      "name": "createRandomGameToken",
      "outputs": [],
      "stateMutability": "nonpayable",
      "type": "function"
    },
    {
      "inputs": [
        {
          "internalType": "uint256",
          "name": "id",
          "type": "uint256"
        }
      ],
      "name": "exists",
      "outputs": [
        {
          "internalType": "bool",
          "name": "",
          "type": "bool"
        }
      ],
      "stateMutability": "view",
      "type": "function"
    },
    {
      "inputs": [
        {
          "internalType": "uint256",
          "name": "",
          "type": "uint256"
        }
      ],
      "name": "gameTokens",
      "outputs": [
        {
          "internalType": "string",
          "name": "name",
          "type": "string"
        },
        {
          "internalType": "uint256",
          "name": "id",
          "type": "uint256"
        },
        {
          "internalType": "uint256",
          "name": "attackStrength",
          "type": "uint256"
        },
        {
          "internalType": "uint256",
          "name": "defenseStrength",
          "type": "uint256"
        }
      ],
      "stateMutability": "view",
      "type": "function"
    },
    {
      "inputs": [],
      "name": "getAllBattles",
      "outputs": [
        {
          "components": [
            {
              "internalType": "enum ChronoClash.BattleStatus",
              "name": "battleStatus",
              "type": "uint8"
            },
            {
              "internalType": "bytes32",
              "name": "battleHash",
              "type": "bytes32"
            },
            {
              "internalType": "string",
              "name": "name",
              "type": "string"
            },
            {
              "internalType": "address[2]",
              "name": "players",
              "type": "address[2]"
            },
            {
              "internalType": "uint8[2]",
              "name": "moves",
              "type": "uint8[2]"
            },
            {
              "internalType": "address",
              "name": "winner",
              "type": "address"
            }
          ],
          "internalType": "struct ChronoClash.Battle[]",
          "name": "",
          "type": "tuple[]"
        }
      ],
      "stateMutability": "view",
      "type": "function"
    },
    {
      "inputs": [],
      "name": "getAllPlayerTokens",
      "outputs": [
        {
          "components": [
            {
              "internalType": "string",
              "name": "name",
              "type": "string"
            },
            {
              "internalType": "uint256",
              "name": "id",
              "type": "uint256"
            },
            {
              "internalType": "uint256",
              "name": "attackStrength",
              "type": "uint256"
            },
            {
              "internalType": "uint256",
              "name": "defenseStrength",
              "type": "uint256"
            }
          ],
          "internalType": "struct ChronoClash.GameToken[]",
          "name": "",
          "type": "tuple[]"
        }
      ],
      "stateMutability": "view",
      "type": "function"
    },
    {
      "inputs": [],
      "name": "getAllPlayers",
      "outputs": [
        {
          "components": [
            {
              "internalType": "address",
              "name": "playerAddress",
              "type": "address"
            },
            {
              "internalType": "string",
              "name": "playerName",
              "type": "string"
            },
            {
              "internalType": "uint256",
              "name": "playerMana",
              "type": "uint256"
            },
            {
              "internalType": "uint256",
              "name": "playerHealth",
              "type": "uint256"
            },
            {
              "internalType": "bool",
              "name": "inBattle",
              "type": "bool"
            }
          ],
          "internalType": "struct ChronoClash.Player[]",
          "name": "",
          "type": "tuple[]"
        }
      ],
      "stateMutability": "view",
      "type": "function"
    },
    {
      "inputs": [
        {
          "internalType": "string",
          "name": "_name",
          "type": "string"
        }
      ],
      "name": "getBattle",
      "outputs": [
        {
          "components": [
            {
              "internalType": "enum ChronoClash.BattleStatus",
              "name": "battleStatus",
              "type": "uint8"
            },
            {
              "internalType": "bytes32",
              "name": "battleHash",
              "type": "bytes32"
            },
            {
              "internalType": "string",
              "name": "name",
              "type": "string"
            },
            {
              "internalType": "address[2]",
              "name": "players",
              "type": "address[2]"
            },
            {
              "internalType": "uint8[2]",
              "name": "moves",
              "type": "uint8[2]"
            },
            {
              "internalType": "address",
              "name": "winner",
              "type": "address"
            }
          ],
          "internalType": "struct ChronoClash.Battle",
          "name": "",
          "type": "tuple"
        }
      ],
      "stateMutability": "view",
      "type": "function"
    },
    {
      "inputs": [
        {
          "internalType": "string",
          "name": "_battleName",
          "type": "string"
        }
      ],
      "name": "getBattleMoves",
      "outputs": [
        {
          "internalType": "uint256",
          "name": "P1Move",
          "type": "uint256"
        },
        {
          "internalType": "uint256",
          "name": "P2Move",
          "type": "uint256"
        }
      ],
      "stateMutability": "view",
      "type": "function"
    },
    {
      "inputs": [
        {
          "internalType": "address",
          "name": "addr",
          "type": "address"
        }
      ],
      "name": "getPlayer",
      "outputs": [
        {
          "components": [
            {
              "internalType": "address",
              "name": "playerAddress",
              "type": "address"
            },
            {
              "internalType": "string",
              "name": "playerName",
              "type": "string"
            },
            {
              "internalType": "uint256",
              "name": "playerMana",
              "type": "uint256"
            },
            {
              "internalType": "uint256",
              "name": "playerHealth",
              "type": "uint256"
            },
            {
              "internalType": "bool",
              "name": "inBattle",
              "type": "bool"
            }
          ],
          "internalType": "struct ChronoClash.Player",
          "name": "",
          "type": "tuple"
        }
      ],
      "stateMutability": "view",
      "type": "function"
    },
    {
      "inputs": [
        {
          "internalType": "address",
          "name": "addr",
          "type": "address"
        }
      ],
      "name": "getPlayerToken",
      "outputs": [
        {
          "components": [
            {
              "internalType": "string",
              "name": "name",
              "type": "string"
            },
            {
              "internalType": "uint256",
              "name": "id",
              "type": "uint256"
            },
            {
              "internalType": "uint256",
              "name": "attackStrength",
              "type": "uint256"
            },
            {
              "internalType": "uint256",
              "name": "defenseStrength",
              "type": "uint256"
            }
          ],
          "internalType": "struct ChronoClash.GameToken",
          "name": "",
          "type": "tuple"
        }
      ],
      "stateMutability": "view",
      "type": "function"
    },
    {
      "inputs": [],
      "name": "getTotalSupply",
      "outputs": [
        {
          "internalType": "uint256",
          "name": "",
          "type": "uint256"
        }
      ],
      "stateMutability": "view",
      "type": "function"
    },
    {
      "inputs": [
        {
          "internalType": "address",
          "name": "account",
          "type": "address"
        },
        {
          "internalType": "address",
          "name": "operator",
          "type": "address"
        }
      ],
      "name": "isApprovedForAll",
      "outputs": [
        {
          "internalType": "bool",
          "name": "",
          "type": "bool"
        }
      ],
      "stateMutability": "view",
      "type": "function"
    },
    {
      "inputs": [
        {
          "internalType": "string",
          "name": "_name",
          "type": "string"
        }
      ],
      "name": "isBattle",
      "outputs": [
        {
          "internalType": "bool",
          "name": "",
          "type": "bool"
        }
      ],
      "stateMutability": "view",
      "type": "function"
    },
    {
      "inputs": [
        {
          "internalType": "address",
          "name": "addr",
          "type": "address"
        }
      ],
      "name": "isPlayer",
      "outputs": [
        {
          "internalType": "bool",
          "name": "",
          "type": "bool"
        }
      ],
      "stateMutability": "view",
      "type": "function"
    },
    {
      "inputs": [
        {
          "internalType": "address",
          "name": "addr",
          "type": "address"
        }
      ],
      "name": "isPlayerToken",
      "outputs": [
        {
          "internalType": "bool",
          "name": "",
          "type": "bool"
        }
      ],
      "stateMutability": "view",
      "type": "function"
    },
    {
      "inputs": [
        {
          "internalType": "string",
          "name": "_name",
          "type": "string"
        }
      ],
      "name": "joinBattle",
      "outputs": [
        {
          "components": [
            {
              "internalType": "enum ChronoClash.BattleStatus",
              "name": "battleStatus",
              "type": "uint8"
            },
            {
              "internalType": "bytes32",
              "name": "battleHash",
              "type": "bytes32"
            },
            {
              "internalType": "string",
              "name": "name",
              "type": "string"
            },
            {
              "internalType": "address[2]",
              "name": "players",
              "type": "address[2]"
            },
            {
              "internalType": "uint8[2]",
              "name": "moves",
              "type": "uint8[2]"
            },
            {
              "internalType": "address",
              "name": "winner",
              "type": "address"
            }
          ],
          "internalType": "struct ChronoClash.Battle",
          "name": "",
          "type": "tuple"
        }
      ],
      "stateMutability": "nonpayable",
      "type": "function"
    },
    {
      "inputs": [],
      "name": "owner",
      "outputs": [
        {
          "internalType": "address",
          "name": "",
          "type": "address"
        }
      ],
      "stateMutability": "view",
      "type": "function"
    },
    {
      "inputs": [
        {
          "internalType": "address",
          "name": "",
          "type": "address"
        }
      ],
      "name": "playerInfo",
      "outputs": [
        {
          "internalType": "uint256",
          "name": "",
          "type": "uint256"
        }
      ],
      "stateMutability": "view",
      "type": "function"
    },
    {
      "inputs": [
        {
          "internalType": "address",
          "name": "",
          "type": "address"
        }
      ],
      "name": "playerTokenInfo",
      "outputs": [
        {
          "internalType": "uint256",
          "name": "",
          "type": "uint256"
        }
      ],
      "stateMutability": "view",
      "type": "function"
    },
    {
      "inputs": [
        {
          "internalType": "uint256",
          "name": "",
          "type": "uint256"
        }
      ],
      "name": "players",
      "outputs": [
        {
          "internalType": "address",
          "name": "playerAddress",
          "type": "address"
        },
        {
          "internalType": "string",
          "name": "playerName",
          "type": "string"
        },
        {
          "internalType": "uint256",
          "name": "playerMana",
          "type": "uint256"
        },
        {
          "internalType": "uint256",
          "name": "playerHealth",
          "type": "uint256"
        },
        {
          "internalType": "bool",
          "name": "inBattle",
          "type": "bool"
        }
      ],
      "stateMutability": "view",
      "type": "function"
    },
    {
      "inputs": [
        {
          "internalType": "string",
          "name": "_battleName",
          "type": "string"
        }
      ],
      "name": "quitBattle",
      "outputs": [],
      "stateMutability": "nonpayable",
      "type": "function"
    },
    {
      "inputs": [
        {
          "internalType": "string",
          "name": "_name",
          "type": "string"
        },
        {
          "internalType": "string",
          "name": "_gameTokenName",
          "type": "string"
        }
      ],
      "name": "registerPlayer",
      "outputs": [],
      "stateMutability": "nonpayable",
      "type": "function"
    },
    {
      "inputs": [],
      "name": "renounceOwnership",
      "outputs": [],
      "stateMutability": "nonpayable",
      "type": "function"
    },
    {
      "inputs": [
        {
          "internalType": "address",
          "name": "from",
          "type": "address"
        },
        {
          "internalType": "address",
          "name": "to",
          "type": "address"
        },
        {
          "internalType": "uint256[]",
          "name": "ids",
          "type": "uint256[]"
        },
        {
          "internalType": "uint256[]",
          "name": "amounts",
          "type": "uint256[]"
        },
        {
          "internalType": "bytes",
          "name": "data",
          "type": "bytes"
        }
      ],
      "name": "safeBatchTransferFrom",
      "outputs": [],
      "stateMutability": "nonpayable",
      "type": "function"
    },
    {
      "inputs": [
        {
          "internalType": "address",
          "name": "from",
          "type": "address"
        },
        {
          "internalType": "address",
          "name": "to",
          "type": "address"
        },
        {
          "internalType": "uint256",
          "name": "id",
          "type": "uint256"
        },
        {
          "internalType": "uint256",
          "name": "amount",
          "type": "uint256"
        },
        {
          "internalType": "bytes",
          "name": "data",
          "type": "bytes"
        }
      ],
      "name": "safeTransferFrom",
      "outputs": [],
      "stateMutability": "nonpayable",
      "type": "function"
    },
    {
      "inputs": [
        {
          "internalType": "address",
          "name": "operator",
          "type": "address"
        },
        {
          "internalType": "bool",
          "name": "approved",
          "type": "bool"
        }
      ],
      "name": "setApprovalForAll",
      "outputs": [],
      "stateMutability": "nonpayable",
      "type": "function"
    },
    {
      "inputs": [
        {
          "internalType": "string",
          "name": "newuri",
          "type": "string"
        }
      ],
      "name": "setURI",
      "outputs": [],
      "stateMutability": "nonpayable",
      "type": "function"
    },
    {
      "inputs": [
        {
          "internalType": "bytes4",
          "name": "interfaceId",
          "type": "bytes4"
        }
      ],
      "name": "supportsInterface",
      "outputs": [
        {
          "internalType": "bool",
          "name": "",
          "type": "bool"
        }
      ],
      "stateMutability": "view",
      "type": "function"
    },
    {
      "inputs": [
        {
          "internalType": "uint256",
          "name": "tokenId",
          "type": "uint256"
        }
      ],
      "name": "tokenURI",
      "outputs": [
        {
          "internalType": "string",
          "name": "",
          "type": "string"
        }
      ],
      "stateMutability": "view",
      "type": "function"
    },
    {
      "inputs": [],
      "name": "totalSupply",
      "outputs": [
        {
          "internalType": "uint256",
          "name": "",
          "type": "uint256"
        }
      ],
      "stateMutability": "view",
      "type": "function"
    },
    {
      "inputs": [
        {
          "internalType": "uint256",
          "name": "id",
          "type": "uint256"
        }
      ],
      "name": "totalSupply",
      "outputs": [
        {
          "internalType": "uint256",
          "name": "",
          "type": "uint256"
        }
      ],
      "stateMutability": "view",
      "type": "function"
    },
    {
      "inputs": [
        {
          "internalType": "address",
          "name": "newOwner",
          "type": "address"
        }
      ],
      "name": "transferOwnership",
      "outputs": [],
      "stateMutability": "nonpayable",
      "type": "function"
    },
    {
      "inputs": [
        {
          "internalType": "uint256",
          "name": "",
          "type": "uint256"
        }
      ],
      "name": "uri",
      "outputs": [
        {
          "internalType": "string",
          "name": "",
          "type": "string"
        }
      ],
      "stateMutability": "view",
      "type": "function"
    }
  ],
  "bytecode": "0x60806040523480156200001157600080fd5b50604051620095ee380380620095ee8339818101604052810190620000379190620007e8565b8062000049816200009360201b60201c565b506200006a6200005e620000a860201b60201c565b620000b060201b60201c565b80600590816200007b919062000a84565b506200008c6200017660201b60201c565b5062000b9a565b8060029081620000a4919062000a84565b5050565b600033905090565b6000600360009054906101000a900473ffffffffffffffffffffffffffffffffffffffff16905081600360006101000a81548173ffffffffffffffffffffffffffffffffffffffff021916908373ffffffffffffffffffffffffffffffffffffffff1602179055508173ffffffffffffffffffffffffffffffffffffffff168173ffffffffffffffffffffffffffffffffffffffff167f8be0079c531659141344cd1fd0a4f28419497f9722a3daafe3b4186f6b6457e060405160405180910390a35050565b600b60405180608001604052806040518060200160405280600081525081526020016000815260200160008152602001600081525090806001815401808255809150506001900390600052602060002090600402016000909190919091506000820151816000019081620001eb919062000a84565b506020820151816001015560408201518160020155606082015181600301555050600a6040518060a00160405280600073ffffffffffffffffffffffffffffffffffffffff168152602001604051806020016040528060008152508152602001600081526020016000815260200160001515815250908060018154018082558091505060019003906000526020600020906005020160009091909190915060008201518160000160006101000a81548173ffffffffffffffffffffffffffffffffffffffff021916908373ffffffffffffffffffffffffffffffffffffffff1602179055506020820151816001019081620002e7919062000a84565b50604082015181600201556060820151816003015560808201518160040160006101000a81548160ff0219169083151502179055505050600c6040518060c001604052806000600281111562000342576200034162000b6b565b5b81526020016000801b81526020016040518060200160405280600081525081526020016040518060400160405280600073ffffffffffffffffffffffffffffffffffffffff1673ffffffffffffffffffffffffffffffffffffffff168152602001600073ffffffffffffffffffffffffffffffffffffffff1673ffffffffffffffffffffffffffffffffffffffff1681525081526020016040518060400160405280600060ff168152602001600060ff168152508152602001600073ffffffffffffffffffffffffffffffffffffffff16815250908060018154018082558091505060019003906000526020600020906007020160009091909190915060008201518160000160006101000a81548160ff021916908360028111156200046d576200046c62000b6b565b5b021790555060208201518160010155604082015181600201908162000493919062000a84565b50606082015181600301906002620004ad92919062000513565b50608082015181600501906002620004c792919062000595565b5060a08201518160060160006101000a81548173ffffffffffffffffffffffffffffffffffffffff021916908373ffffffffffffffffffffffffffffffffffffffff1602179055505050565b826002810192821562000582579160200282015b82811115620005815782518260006101000a81548173ffffffffffffffffffffffffffffffffffffffff021916908373ffffffffffffffffffffffffffffffffffffffff1602179055509160200191906001019062000527565b5b50905062000591919062000636565b5090565b826002601f01602090048101928215620006235791602002820160005b83821115620005f257835183826101000a81548160ff021916908360ff1602179055509260200192600101602081600001049283019260010302620005b2565b8015620006215782816101000a81549060ff0219169055600101602081600001049283019260010302620005f2565b505b50905062000632919062000636565b5090565b5b808211156200065157600081600090555060010162000637565b5090565b6000604051905090565b600080fd5b600080fd5b600080fd5b600080fd5b6000601f19601f8301169050919050565b7f4e487b7100000000000000000000000000000000000000000000000000000000600052604160045260246000fd5b620006be8262000673565b810181811067ffffffffffffffff82111715620006e057620006df62000684565b5b80604052505050565b6000620006f562000655565b9050620007038282620006b3565b919050565b600067ffffffffffffffff82111562000726576200072562000684565b5b620007318262000673565b9050602081019050919050565b60005b838110156200075e57808201518184015260208101905062000741565b60008484015250505050565b6000620007816200077b8462000708565b620006e9565b905082815260208101848484011115620007a0576200079f6200066e565b5b620007ad8482856200073e565b509392505050565b600082601f830112620007cd57620007cc62000669565b5b8151620007df8482602086016200076a565b91505092915050565b6000602082840312156200080157620008006200065f565b5b600082015167ffffffffffffffff81111562000822576200082162000664565b5b6200083084828501620007b5565b91505092915050565b600081519050919050565b7f4e487b7100000000000000000000000000000000000000000000000000000000600052602260045260246000fd5b600060028204905060018216806200088c57607f821691505b602082108103620008a257620008a162000844565b5b50919050565b60008190508160005260206000209050919050565b60006020601f8301049050919050565b600082821b905092915050565b6000600883026200090c7fffffffffffffffffffffffffffffffffffffffffffffffffffffffffffffffff82620008cd565b620009188683620008cd565b95508019841693508086168417925050509392505050565b6000819050919050565b6000819050919050565b6000620009656200095f620009598462000930565b6200093a565b62000930565b9050919050565b6000819050919050565b620009818362000944565b6200099962000990826200096c565b848454620008da565b825550505050565b600090565b620009b0620009a1565b620009bd81848462000976565b505050565b5b81811015620009e557620009d9600082620009a6565b600181019050620009c3565b5050565b601f82111562000a3457620009fe81620008a8565b62000a0984620008bd565b8101602085101562000a19578190505b62000a3162000a2885620008bd565b830182620009c2565b50505b505050565b600082821c905092915050565b600062000a596000198460080262000a39565b1980831691505092915050565b600062000a74838362000a46565b9150826002028217905092915050565b62000a8f8262000839565b67ffffffffffffffff81111562000aab5762000aaa62000684565b5b62000ab7825462000873565b62000ac4828285620009e9565b600060209050601f83116001811462000afc576000841562000ae7578287015190505b62000af3858262000a66565b86555062000b63565b601f19841662000b0c86620008a8565b60005b8281101562000b365784890151825560018201915060208501945060208101905062000b0f565b8683101562000b56578489015162000b52601f89168262000a46565b8355505b6001600288020188555050505b505050505050565b7f4e487b7100000000000000000000000000000000000000000000000000000000600052602160045260246000fd5b618a448062000baa6000396000f3fe608060405234801561001057600080fd5b50600436106102945760003560e01c8063606d2e9611610167578063ba274956116100ce578063e985e9c511610087578063e985e9c5146108c6578063ee188686146108f6578063efa1c48214610914578063f242432a14610932578063f2fde38b1461094e578063f71d96cb1461096a57610294565b8063ba274956146107c9578063bd85b039146107e5578063bf034b6914610815578063bf103a4d14610848578063c4e41b2214610878578063c87b56dd1461089657610294565b80639b09cc87116101205780639b09cc87146106f45780639ec40aa314610725578063a1b4f57c14610741578063a22cb46514610771578063a5dea2371461078d578063b36638b3146107ab57610294565b8063606d2e96146106435780636c0360eb14610676578063715018a614610694578063845f433b1461069e5780638da5cb5b146106ba578063996d7bea146106d857610294565b806320d85c5d1161020b5780634b114691116101c45780634b114691146105475780634e1273f4146105775780634f558e79146105a7578063558b9a56146105d75780635c12cd4b146105f55780635c93fc3d1461062557610294565b806320d85c5d1461045f5780632711162e1461047d5780632ca04522146104ad5780632eb2c2d6146104dd5780633835e2b5146104f957806346a835191461052957610294565b80630daea2cd1161025d5780630daea2cd146103635780630e89341c1461038157806310898e4c146103b15780631107ae3d146103e157806316801d171461041157806318160ddd1461044157610294565b8062fdd58e14610299578063015a3792146102c957806301ffc9a7146102e757806302fe53051461031757806309c95e1014610333575b600080fd5b6102b360048036038101906102ae9190615a0d565b61099e565b6040516102c09190615a5c565b60405180910390f35b6102d1610a66565b6040516102de9190615c3b565b60405180910390f35b61030160048036038101906102fc9190615cb5565b610b75565b60405161030e9190615cfd565b60405180910390f35b610331600480360381019061032c9190615e4d565b610c57565b005b61034d60048036038101906103489190615e96565b610c6b565b60405161035a9190615cfd565b60405180910390f35b61036b610cc6565b6040516103789190615a5c565b60405180910390f35b61039b60048036038101906103969190615ec3565b610ccb565b6040516103a89190615f3a565b60405180910390f35b6103cb60048036038101906103c69190615e96565b610d5f565b6040516103d89190615fbf565b60405180910390f35b6103fb60048036038101906103f69190615e4d565b610ed2565b6040516104089190615cfd565b60405180910390f35b61042b60048036038101906104269190615e4d565b610f0c565b604051610438919061625e565b60405180910390f35b6104496111c1565b6040516104569190615a5c565b60405180910390f35b6104676111c7565b6040516104749190615a5c565b60405180910390f35b61049760048036038101906104929190615e96565b6111cc565b6040516104a49190615a5c565b60405180910390f35b6104c760048036038101906104c29190615e4d565b6111e4565b6040516104d4919061625e565b60405180910390f35b6104f760048036038101906104f291906163e9565b6114b9565b005b610513600480360381019061050e9190615e4d565b61155a565b6040516105209190615a5c565b60405180910390f35b610531611588565b60405161053e9190615a5c565b60405180910390f35b610561600480360381019061055c9190615e96565b61158d565b60405161056e9190615a5c565b60405180910390f35b610591600480360381019061058c919061657b565b6115a5565b60405161059e91906166a2565b60405180910390f35b6105c160048036038101906105bc9190615ec3565b6116be565b6040516105ce9190615cfd565b60405180910390f35b6105df6116d2565b6040516105ec9190615a5c565b60405180910390f35b61060f600480360381019061060a9190615e96565b6116d7565b60405161061c9190616749565b60405180910390f35b61062d6118b1565b60405161063a91906168b7565b60405180910390f35b61065d60048036038101906106589190615ec3565b611b23565b60405161066d9493929190616906565b60405180910390f35b61067e611c18565b60405161068b9190615f3a565b60405180910390f35b61069c611ca6565b005b6106b860048036038101906106b39190616952565b611cba565b005b6106c2611ead565b6040516106cf91906169ca565b60405180910390f35b6106f260048036038101906106ed9190615e4d565b611ed7565b005b61070e60048036038101906107099190615e4d565b612066565b60405161071c9291906169e5565b60405180910390f35b61073f600480360381019061073a9190615e4d565b6120c0565b005b61075b60048036038101906107569190615e4d565b612162565b604051610768919061625e565b60405180910390f35b61078b60048036038101906107869190616a3a565b612504565b005b61079561251a565b6040516107a29190615a5c565b60405180910390f35b6107b361251f565b6040516107c09190615a5c565b60405180910390f35b6107e360048036038101906107de9190616aa6565b612524565b005b6107ff60048036038101906107fa9190615ec3565b6128fb565b60405161080c9190615a5c565b60405180910390f35b61082f600480360381019061082a9190615ec3565b612918565b60405161083f9493929190616b02565b60405180910390f35b610862600480360381019061085d9190615e96565b6129e0565b60405161086f9190615cfd565b60405180910390f35b610880612a3b565b60405161088d9190615a5c565b60405180910390f35b6108b060048036038101906108ab9190615ec3565b612a45565b6040516108bd9190615f3a565b60405180910390f35b6108e060048036038101906108db9190616b4e565b612a79565b6040516108ed9190615cfd565b60405180910390f35b6108fe612b0d565b60405161090b9190615a5c565b60405180910390f35b61091c612b12565b6040516109299190616cc6565b60405180910390f35b61094c60048036038101906109479190616ce8565b612c88565b005b61096860048036038101906109639190615e96565b612d29565b005b610984600480360381019061097f9190615ec3565b612dac565b604051610995959493929190616d7f565b60405180910390f35b60008073ffffffffffffffffffffffffffffffffffffffff168373ffffffffffffffffffffffffffffffffffffffff1603610a0e576040517f08c379a0000000000000000000000000000000000000000000000000000000008152600401610a0590616e4b565b60405180910390fd5b60008083815260200190815260200160002060008473ffffffffffffffffffffffffffffffffffffffff1673ffffffffffffffffffffffffffffffffffffffff16815260200190815260200160002054905092915050565b6060600b805480602002602001604051908101604052809291908181526020016000905b82821015610b6c5783829060005260206000209060040201604051806080016040529081600082018054610abd90616e9a565b80601f0160208091040260200160405190810160405280929190818152602001828054610ae990616e9a565b8015610b365780601f10610b0b57610100808354040283529160200191610b36565b820191906000526020600020905b815481529060010190602001808311610b1957829003601f168201915b50505050508152602001600182015481526020016002820154815260200160038201548152505081526020019060010190610a8a565b50505050905090565b60007fd9b67a26000000000000000000000000000000000000000000000000000000007bffffffffffffffffffffffffffffffffffffffffffffffffffffffff1916827bffffffffffffffffffffffffffffffffffffffffffffffffffffffff19161480610c4057507f0e89341c000000000000000000000000000000000000000000000000000000007bffffffffffffffffffffffffffffffffffffffffffffffffffffffff1916827bffffffffffffffffffffffffffffffffffffffffffffffffffffffff1916145b80610c505750610c4f82612ea7565b5b9050919050565b610c5f612f11565b610c6881612f8f565b50565b600080600760008473ffffffffffffffffffffffffffffffffffffffff1673ffffffffffffffffffffffffffffffffffffffff1681526020019081526020016000205403610cbc5760009050610cc1565b600190505b919050565b600a81565b606060028054610cda90616e9a565b80601f0160208091040260200160405190810160405280929190818152602001828054610d0690616e9a565b8015610d535780601f10610d2857610100808354040283529160200191610d53565b820191906000526020600020905b815481529060010190602001808311610d3657829003601f168201915b50505050509050919050565b610d67615711565b610d70826129e0565b610daf576040517f08c379a0000000000000000000000000000000000000000000000000000000008152600401610da690616f17565b60405180910390fd5b600b600860008473ffffffffffffffffffffffffffffffffffffffff1673ffffffffffffffffffffffffffffffffffffffff1681526020019081526020016000205481548110610e0257610e01616f37565b5b9060005260206000209060040201604051806080016040529081600082018054610e2b90616e9a565b80601f0160208091040260200160405190810160405280929190818152602001828054610e5790616e9a565b8015610ea45780601f10610e7957610100808354040283529160200191610ea4565b820191906000526020600020905b815481529060010190602001808311610e8757829003601f168201915b5050505050815260200160018201548152602001600282015481526020016003820154815250509050919050565b600080600983604051610ee59190616fa2565b90815260200160405180910390205403610f025760009050610f07565b600190505b919050565b610f14615739565b610f1d82610ed2565b610f5c576040517f08c379a0000000000000000000000000000000000000000000000000000000008152600401610f5390617005565b60405180910390fd5b600c600983604051610f6e9190616fa2565b90815260200160405180910390205481548110610f8e57610f8d616f37565b5b90600052602060002090600702016040518060c00160405290816000820160009054906101000a900460ff166002811115610fcc57610fcb615fe1565b5b6002811115610fde57610fdd615fe1565b5b815260200160018201548152602001600282018054610ffc90616e9a565b80601f016020809104026020016040519081016040528092919081815260200182805461102890616e9a565b80156110755780601f1061104a57610100808354040283529160200191611075565b820191906000526020600020905b81548152906001019060200180831161105857829003601f168201915b50505050508152602001600382016002806020026040519081016040528092919082600280156110f0576020028201915b8160009054906101000a900473ffffffffffffffffffffffffffffffffffffffff1673ffffffffffffffffffffffffffffffffffffffff16815260200190600101908083116110a6575b505050505081526020016005820160028060200260405190810160405280929190826002801561115b576020028201916000905b82829054906101000a900460ff1660ff16815260200190600101906020826000010492830192600103820291508084116111245790505b505050505081526020016006820160009054906101000a900473ffffffffffffffffffffffffffffffffffffffff1673ffffffffffffffffffffffffffffffffffffffff1673ffffffffffffffffffffffffffffffffffffffff16815250509050919050565b60065481565b600381565b60086020528060005260406000206000915090505481565b6111ec615739565b6111f533610c6b565b611234576040517f08c379a000000000000000000000000000000000000000000000000000000000815260040161122b90617071565b60405180910390fd5b61123d82610ed2565b1561127d576040517f08c379a0000000000000000000000000000000000000000000000000000000008152600401611274906170dd565b60405180910390fd5b6000826040516020016112909190615f3a565b60405160208183030381529060405280519060200120905060006040518060c00160405280600060028111156112c9576112c8615fe1565b5b815260200183815260200185815260200160405180604001604052803373ffffffffffffffffffffffffffffffffffffffff1673ffffffffffffffffffffffffffffffffffffffff168152602001600073ffffffffffffffffffffffffffffffffffffffff1673ffffffffffffffffffffffffffffffffffffffff1681525081526020016040518060400160405280600060ff168152602001600060ff168152508152602001600073ffffffffffffffffffffffffffffffffffffffff1681525090506000600c805490509050806009866040516113a79190616fa2565b908152602001604051809103902081905550600c82908060018154018082558091505060019003906000526020600020906007020160009091909190915060008201518160000160006101000a81548160ff021916908360028111156114105761140f615fe1565b5b021790555060208201518160010155604082015181600201908161143491906172a9565b5060608201518160030190600261144c9291906157a6565b50608082015181600501906002611464929190615823565b5060a08201518160060160006101000a81548173ffffffffffffffffffffffffffffffffffffffff021916908373ffffffffffffffffffffffffffffffffffffffff1602179055505050819350505050919050565b6114c1612fa2565b73ffffffffffffffffffffffffffffffffffffffff168573ffffffffffffffffffffffffffffffffffffffff161480611507575061150685611501612fa2565b612a79565b5b611546576040517f08c379a000000000000000000000000000000000000000000000000000000000815260040161153d906173ed565b60405180910390fd5b6115538585858585612faa565b5050505050565b6009818051602081018201805184825260208301602085012081835280955050505050506000915090505481565b600181565b60076020528060005260406000206000915090505481565b606081518351146115eb576040517f08c379a00000000000000000000000000000000000000000000000000000000081526004016115e29061747f565b60405180910390fd5b6000835167ffffffffffffffff81111561160857611607615d22565b5b6040519080825280602002602001820160405280156116365781602001602082028036833780820191505090505b50905060005b84518110156116b35761168385828151811061165b5761165a616f37565b5b602002602001015185838151811061167657611675616f37565b5b602002602001015161099e565b82828151811061169657611695616f37565b5b602002602001018181525050806116ac906174ce565b905061163c565b508091505092915050565b6000806116ca836128fb565b119050919050565b600281565b6116df6158bd565b6116e882610c6b565b611727576040517f08c379a000000000000000000000000000000000000000000000000000000000815260040161171e90617562565b60405180910390fd5b600a600760008473ffffffffffffffffffffffffffffffffffffffff1673ffffffffffffffffffffffffffffffffffffffff168152602001908152602001600020548154811061177a57611779616f37565b5b90600052602060002090600502016040518060a00160405290816000820160009054906101000a900473ffffffffffffffffffffffffffffffffffffffff1673ffffffffffffffffffffffffffffffffffffffff1673ffffffffffffffffffffffffffffffffffffffff1681526020016001820180546117f990616e9a565b80601f016020809104026020016040519081016040528092919081815260200182805461182590616e9a565b80156118725780601f1061184757610100808354040283529160200191611872565b820191906000526020600020905b81548152906001019060200180831161185557829003601f168201915b5050505050815260200160028201548152602001600382015481526020016004820160009054906101000a900460ff1615151515815250509050919050565b6060600c805480602002602001604051908101604052809291908181526020016000905b82821015611b1a57838290600052602060002090600702016040518060c00160405290816000820160009054906101000a900460ff16600281111561191d5761191c615fe1565b5b600281111561192f5761192e615fe1565b5b81526020016001820154815260200160028201805461194d90616e9a565b80601f016020809104026020016040519081016040528092919081815260200182805461197990616e9a565b80156119c65780601f1061199b576101008083540402835291602001916119c6565b820191906000526020600020905b8154815290600101906020018083116119a957829003601f168201915b5050505050815260200160038201600280602002604051908101604052809291908260028015611a41576020028201915b8160009054906101000a900473ffffffffffffffffffffffffffffffffffffffff1673ffffffffffffffffffffffffffffffffffffffff16815260200190600101908083116119f7575b5050505050815260200160058201600280602002604051908101604052809291908260028015611aac576020028201916000905b82829054906101000a900460ff1660ff1681526020019060010190602082600001049283019260010382029150808411611a755790505b505050505081526020016006820160009054906101000a900473ffffffffffffffffffffffffffffffffffffffff1673ffffffffffffffffffffffffffffffffffffffff1673ffffffffffffffffffffffffffffffffffffffff1681525050815260200190600101906118d5565b50505050905090565b600c8181548110611b3357600080fd5b90600052602060002090600702016000915090508060000160009054906101000a900460ff1690806001015490806002018054611b6f90616e9a565b80601f0160208091040260200160405190810160405280929190818152602001828054611b9b90616e9a565b8015611be85780601f10611bbd57610100808354040283529160200191611be8565b820191906000526020600020905b815481529060010190602001808311611bcb57829003601f168201915b5050505050908060060160009054906101000a900473ffffffffffffffffffffffffffffffffffffffff16905084565b60058054611c2590616e9a565b80601f0160208091040260200160405190810160405280929190818152602001828054611c5190616e9a565b8015611c9e5780601f10611c7357610100808354040283529160200191611c9e565b820191906000526020600020905b815481529060010190602001808311611c8157829003601f168201915b505050505081565b611cae612f11565b611cb860006132cb565b565b611cc333610c6b565b15611d03576040517f08c379a0000000000000000000000000000000000000000000000000000000008152600401611cfa906175ce565b60405180910390fd5b6000600a805490509050600a6040518060a001604052803373ffffffffffffffffffffffffffffffffffffffff168152602001858152602001600a81526020016019815260200160001515815250908060018154018082558091505060019003906000526020600020906005020160009091909190915060008201518160000160006101000a81548173ffffffffffffffffffffffffffffffffffffffff021916908373ffffffffffffffffffffffffffffffffffffffff1602179055506020820151816001019081611dd691906172a9565b50604082015181600201556060820151816003015560808201518160040160006101000a81548160ff021916908315150217905550505080600760003373ffffffffffffffffffffffffffffffffffffffff1673ffffffffffffffffffffffffffffffffffffffff16815260200190815260200160002081905550611e5a826120c0565b3373ffffffffffffffffffffffffffffffffffffffff167f81ef79d1cda814a60c0fc60792e648a06d9c6bae67176346d1cc8b63030bfccd84604051611ea09190615f3a565b60405180910390a2505050565b6000600360009054906101000a900473ffffffffffffffffffffffffffffffffffffffff16905090565b6000611ee282610f0c565b90503373ffffffffffffffffffffffffffffffffffffffff168160600151600060028110611f1357611f12616f37565b5b602002015173ffffffffffffffffffffffffffffffffffffffff161480611f8157503373ffffffffffffffffffffffffffffffffffffffff168160600151600160028110611f6457611f63616f37565b5b602002015173ffffffffffffffffffffffffffffffffffffffff16145b611fc0576040517f08c379a0000000000000000000000000000000000000000000000000000000008152600401611fb79061763a565b60405180910390fd5b3373ffffffffffffffffffffffffffffffffffffffff168160600151600060028110611fef57611fee616f37565b5b602002015173ffffffffffffffffffffffffffffffffffffffff161461203a57612035816060015160006002811061202a57612029616f37565b5b602002015182613391565b612061565b612060816060015160016002811061205557612054616f37565b5b602002015182613391565b5b505050565b600080600061207484610f0c565b9050806080015160006002811061208e5761208d616f37565b5b602002015160ff16925080608001516001600281106120b0576120af616f37565b5b602002015160ff16915050915091565b6120c9336116d7565b608001511561210d576040517f08c379a0000000000000000000000000000000000000000000000000000000008152600401612104906176a6565b60405180910390fd5b61211633610c6b565b612155576040517f08c379a000000000000000000000000000000000000000000000000000000000815260040161214c90617071565b60405180910390fd5b61215e81613768565b5050565b61216a615739565b600061217583610f0c565b90506000600281111561218b5761218a615fe1565b5b816000015160028111156121a2576121a1615fe1565b5b146121e2576040517f08c379a00000000000000000000000000000000000000000000000000000000081526004016121d990617712565b60405180910390fd5b3373ffffffffffffffffffffffffffffffffffffffff16816060015160006002811061221157612210616f37565b5b602002015173ffffffffffffffffffffffffffffffffffffffff160361226c576040517f08c379a0000000000000000000000000000000000000000000000000000000008152600401612263906177a4565b60405180910390fd5b612275336116d7565b60800151156122b9576040517f08c379a00000000000000000000000000000000000000000000000000000000081526004016122b090617810565b60405180910390fd5b6001816000019060028111156122d2576122d1615fe1565b5b908160028111156122e6576122e5615fe1565b5b8152505033816060015160016002811061230357612302616f37565b5b602002019073ffffffffffffffffffffffffffffffffffffffff16908173ffffffffffffffffffffffffffffffffffffffff16815250506123448382613989565b6001600a60076000846060015160006002811061236457612363616f37565b5b602002015173ffffffffffffffffffffffffffffffffffffffff1673ffffffffffffffffffffffffffffffffffffffff16815260200190815260200160002054815481106123b5576123b4616f37565b5b906000526020600020906005020160040160006101000a81548160ff0219169083151502179055506001600a6007600084606001516001600281106123fd576123fc616f37565b5b602002015173ffffffffffffffffffffffffffffffffffffffff1673ffffffffffffffffffffffffffffffffffffffff168152602001908152602001600020548154811061244e5761244d616f37565b5b906000526020600020906005020160040160006101000a81548160ff0219169083151502179055503373ffffffffffffffffffffffffffffffffffffffff1681606001516000600281106124a5576124a4616f37565b5b602002015173ffffffffffffffffffffffffffffffffffffffff167f024187b16c217a79f8d8e6252b542ec6e278fa91304acd9cfd866f2bbf00bd0883604001516040516124f39190615f3a565b60405180910390a380915050919050565b61251661250f612fa2565b8383613ae0565b5050565b600581565b600081565b600061252f82610f0c565b90506001600281111561254557612544615fe1565b5b8160000151600281111561255c5761255b615fe1565b5b1461259c576040517f08c379a0000000000000000000000000000000000000000000000000000000008152600401612593906178c8565b60405180910390fd5b6002808111156125af576125ae615fe1565b5b816000015160028111156125c6576125c5615fe1565b5b03612606576040517f08c379a00000000000000000000000000000000000000000000000000000000081526004016125fd90617934565b60405180910390fd5b806060015160006002811061261e5761261d616f37565b5b602002015173ffffffffffffffffffffffffffffffffffffffff163373ffffffffffffffffffffffffffffffffffffffff1614806126a35750806060015160016002811061266f5761266e616f37565b5b602002015173ffffffffffffffffffffffffffffffffffffffff163373ffffffffffffffffffffffffffffffffffffffff16145b6126e2576040517f08c379a00000000000000000000000000000000000000000000000000000000081526004016126d9906179a0565b60405180910390fd5b600081608001513373ffffffffffffffffffffffffffffffffffffffff16836060015160006002811061271857612717616f37565b5b602002015173ffffffffffffffffffffffffffffffffffffffff161461273f576001612742565b60005b60ff166002811061275657612755616f37565b5b602002015160ff161461279e576040517f08c379a000000000000000000000000000000000000000000000000000000000815260040161279590617a0c565b60405180910390fd5b6128043373ffffffffffffffffffffffffffffffffffffffff1682606001516000600281106127d0576127cf616f37565b5b602002015173ffffffffffffffffffffffffffffffffffffffff16146127f75760016127fa565b60005b60ff168484613c4c565b61280d82610f0c565b9050600080826080015160016002811061282a57612829616f37565b5b602002015160ff161461283e576001612841565b60005b6000836080015160006002811061285b5761285a616f37565b5b602002015160ff161461286f576001612872565b60005b600261287e9190617a2c565b6128889190617a2c565b60ff1690506001811461289c57600061289f565b60015b1515836040516128af9190616fa2565b60405180910390207f54b82b77e7ae55a8e6c9e89deba70c7191dea2a3b08ae647b380e9f981d6a0f860405160405180910390a3600081036128f5576128f483613d7e565b5b50505050565b600060046000838152602001908152602001600020549050919050565b600b818154811061292857600080fd5b906000526020600020906004020160009150905080600001805461294b90616e9a565b80601f016020809104026020016040519081016040528092919081815260200182805461297790616e9a565b80156129c45780601f10612999576101008083540402835291602001916129c4565b820191906000526020600020905b8154815290600101906020018083116129a757829003601f168201915b5050505050908060010154908060020154908060030154905084565b600080600860008473ffffffffffffffffffffffffffffffffffffffff1673ffffffffffffffffffffffffffffffffffffffff1681526020019081526020016000205403612a315760009050612a36565b600190505b919050565b6000600654905090565b60606005612a5283613f03565b604051602001612a63929190617b7c565b6040516020818303038152906040529050919050565b6000600160008473ffffffffffffffffffffffffffffffffffffffff1673ffffffffffffffffffffffffffffffffffffffff16815260200190815260200160002060008373ffffffffffffffffffffffffffffffffffffffff1673ffffffffffffffffffffffffffffffffffffffff16815260200190815260200160002060009054906101000a900460ff16905092915050565b600481565b6060600a805480602002602001604051908101604052809291908181526020016000905b82821015612c7f57838290600052602060002090600502016040518060a00160405290816000820160009054906101000a900473ffffffffffffffffffffffffffffffffffffffff1673ffffffffffffffffffffffffffffffffffffffff1673ffffffffffffffffffffffffffffffffffffffff168152602001600182018054612bbf90616e9a565b80601f0160208091040260200160405190810160405280929190818152602001828054612beb90616e9a565b8015612c385780601f10612c0d57610100808354040283529160200191612c38565b820191906000526020600020905b815481529060010190602001808311612c1b57829003601f168201915b5050505050815260200160028201548152602001600382015481526020016004820160009054906101000a900460ff16151515158152505081526020019060010190612b36565b50505050905090565b612c90612fa2565b73ffffffffffffffffffffffffffffffffffffffff168573ffffffffffffffffffffffffffffffffffffffff161480612cd65750612cd585612cd0612fa2565b612a79565b5b612d15576040517f08c379a0000000000000000000000000000000000000000000000000000000008152600401612d0c906173ed565b60405180910390fd5b612d22858585858561408b565b5050505050565b612d31612f11565b600073ffffffffffffffffffffffffffffffffffffffff168173ffffffffffffffffffffffffffffffffffffffff1603612da0576040517f08c379a0000000000000000000000000000000000000000000000000000000008152600401612d9790617c28565b60405180910390fd5b612da9816132cb565b50565b600a8181548110612dbc57600080fd5b90600052602060002090600502016000915090508060000160009054906101000a900473ffffffffffffffffffffffffffffffffffffffff1690806001018054612e0590616e9a565b80601f0160208091040260200160405190810160405280929190818152602001828054612e3190616e9a565b8015612e7e5780601f10612e5357610100808354040283529160200191612e7e565b820191906000526020600020905b815481529060010190602001808311612e6157829003601f168201915b5050505050908060020154908060030154908060040160009054906101000a900460ff16905085565b60007f01ffc9a7000000000000000000000000000000000000000000000000000000007bffffffffffffffffffffffffffffffffffffffffffffffffffffffff1916827bffffffffffffffffffffffffffffffffffffffffffffffffffffffff1916149050919050565b612f19612fa2565b73ffffffffffffffffffffffffffffffffffffffff16612f37611ead565b73ffffffffffffffffffffffffffffffffffffffff1614612f8d576040517f08c379a0000000000000000000000000000000000000000000000000000000008152600401612f8490617c94565b60405180910390fd5b565b8060029081612f9e91906172a9565b5050565b600033905090565b8151835114612fee576040517f08c379a0000000000000000000000000000000000000000000000000000000008152600401612fe590617d26565b60405180910390fd5b600073ffffffffffffffffffffffffffffffffffffffff168473ffffffffffffffffffffffffffffffffffffffff160361305d576040517f08c379a000000000000000000000000000000000000000000000000000000000815260040161305490617db8565b60405180910390fd5b6000613067612fa2565b9050613077818787878787614326565b60005b845181101561322857600085828151811061309857613097616f37565b5b6020026020010151905060008583815181106130b7576130b6616f37565b5b60200260200101519050600080600084815260200190815260200160002060008b73ffffffffffffffffffffffffffffffffffffffff1673ffffffffffffffffffffffffffffffffffffffff16815260200190815260200160002054905081811015613158576040517f08c379a000000000000000000000000000000000000000000000000000000000815260040161314f90617e4a565b60405180910390fd5b81810360008085815260200190815260200160002060008c73ffffffffffffffffffffffffffffffffffffffff1673ffffffffffffffffffffffffffffffffffffffff168152602001908152602001600020819055508160008085815260200190815260200160002060008b73ffffffffffffffffffffffffffffffffffffffff1673ffffffffffffffffffffffffffffffffffffffff168152602001908152602001600020600082825461320d9190617e6a565b9250508190555050505080613221906174ce565b905061307a565b508473ffffffffffffffffffffffffffffffffffffffff168673ffffffffffffffffffffffffffffffffffffffff168273ffffffffffffffffffffffffffffffffffffffff167f4a39dc06d4c0dbc64b70af90fd698a233a518aa5d07e595d983b8c0526c8f7fb878760405161329f929190617e9e565b60405180910390a46132b581878787878761433c565b6132c3818787878787614344565b505050505050565b6000600360009054906101000a900473ffffffffffffffffffffffffffffffffffffffff16905081600360006101000a81548173ffffffffffffffffffffffffffffffffffffffff021916908373ffffffffffffffffffffffffffffffffffffffff1602179055508173ffffffffffffffffffffffffffffffffffffffff168173ffffffffffffffffffffffffffffffffffffffff167f8be0079c531659141344cd1fd0a4f28419497f9722a3daafe3b4186f6b6457e060405160405180910390a35050565b613399615739565b6002808111156133ac576133ab615fe1565b5b826000015160028111156133c3576133c2615fe1565b5b03613403576040517f08c379a00000000000000000000000000000000000000000000000000000000081526004016133fa90617f21565b60405180910390fd5b60028260000190600281111561341c5761341b615fe1565b5b908160028111156134305761342f615fe1565b5b81525050828260a0019073ffffffffffffffffffffffffffffffffffffffff16908173ffffffffffffffffffffffffffffffffffffffff168152505061347a826040015183613989565b600060076000846060015160006002811061349857613497616f37565b5b602002015173ffffffffffffffffffffffffffffffffffffffff1673ffffffffffffffffffffffffffffffffffffffff16815260200190815260200160002054905060006007600085606001516001600281106134f8576134f7616f37565b5b602002015173ffffffffffffffffffffffffffffffffffffffff1673ffffffffffffffffffffffffffffffffffffffff1681526020019081526020016000205490506000600a83815481106135505761354f616f37565b5b906000526020600020906005020160040160006101000a81548160ff0219169083151502179055506019600a838154811061358e5761358d616f37565b5b906000526020600020906005020160030181905550600a8083815481106135b8576135b7616f37565b5b9060005260206000209060050201600201819055506000600a82815481106135e3576135e2616f37565b5b906000526020600020906005020160040160006101000a81548160ff0219169083151502179055506019600a828154811061362157613620616f37565b5b906000526020600020906005020160030181905550600a80828154811061364b5761364a616f37565b5b9060005260206000209060050201600201819055506000846060015160006002811061367a57613679616f37565b5b602002015173ffffffffffffffffffffffffffffffffffffffff168673ffffffffffffffffffffffffffffffffffffffff16146136d35784606001516000600281106136c9576136c8616f37565b5b60200201516136f1565b84606001516001600281106136eb576136ea616f37565b5b60200201515b90508073ffffffffffffffffffffffffffffffffffffffff168673ffffffffffffffffffffffffffffffffffffffff167fae6e5eafb6cd1cb4b139e7a0b9140aa182ee7d50e99f50d660156f79212acbc087604001516040516137549190615f3a565b60405180910390a384935050505092915050565b613770615711565b600061377d600a3361451b565b9050600081600a61378e9190617f41565b90506000606442336040516020016137a7929190617fde565b6040516020818303038152906040528051906020012060001c6137ca9190618039565b90506006816137d9919061806a565b905060008160ff16036137f55780806137f19061809b565b9150505b600060405180608001604052808781526020018360ff1681526020018581526020018481525090506000600b805490509050600b829080600181540180825580915050600190039060005260206000209060040201600090919091909150600082015181600001908161386891906172a9565b50602082015181600101556040820151816002015560608201518160030155505080600860003373ffffffffffffffffffffffffffffffffffffffff1673ffffffffffffffffffffffffffffffffffffffff16815260200190815260200160002081905550613912338460ff1660016040518060400160405280600381526020017f307830000000000000000000000000000000000000000000000000000000000081525061457b565b60066000815480929190613925906174ce565b91905055503373ffffffffffffffffffffffffffffffffffffffff167fca8ab07e9ed17d119729fc652dd24df9d8430ca862dda4631925b5b4b99da362848787604051613974939291906180f5565b60405180910390a28195505050505050919050565b61399282610ed2565b6139d1576040517f08c379a00000000000000000000000000000000000000000000000000000000081526004016139c890618178565b60405180910390fd5b80600c6009846040516139e49190616fa2565b90815260200160405180910390205481548110613a0457613a03616f37565b5b906000526020600020906007020160008201518160000160006101000a81548160ff02191690836002811115613a3d57613a3c615fe1565b5b0217905550602082015181600101556040820151816002019081613a6191906172a9565b50606082015181600301906002613a799291906157a6565b50608082015181600501906002613a91929190615823565b5060a08201518160060160006101000a81548173ffffffffffffffffffffffffffffffffffffffff021916908373ffffffffffffffffffffffffffffffffffffffff1602179055509050505050565b8173ffffffffffffffffffffffffffffffffffffffff168373ffffffffffffffffffffffffffffffffffffffff1603613b4e576040517f08c379a0000000000000000000000000000000000000000000000000000000008152600401613b459061820a565b60405180910390fd5b80600160008573ffffffffffffffffffffffffffffffffffffffff1673ffffffffffffffffffffffffffffffffffffffff16815260200190815260200160002060008473ffffffffffffffffffffffffffffffffffffffff1673ffffffffffffffffffffffffffffffffffffffff16815260200190815260200160002060006101000a81548160ff0219169083151502179055508173ffffffffffffffffffffffffffffffffffffffff168373ffffffffffffffffffffffffffffffffffffffff167f17307eab39ab6107e8899845ad3d59bd9653f200f220920489ca2b5937696c3183604051613c3f9190615cfd565b60405180910390a3505050565b60018260ff161480613c61575060028260ff16145b613ca0576040517f08c379a0000000000000000000000000000000000000000000000000000000008152600401613c9790618276565b60405180910390fd5b60018260ff1614613cb2576001613cc4565b6003613cbd336116d7565b6040015110155b613d03576040517f08c379a0000000000000000000000000000000000000000000000000000000008152600401613cfa90618308565b60405180910390fd5b81600c600983604051613d169190616fa2565b90815260200160405180910390205481548110613d3657613d35616f37565b5b90600052602060002090600702016005018460028110613d5957613d58616f37565b5b602091828204019190066101000a81548160ff021916908360ff160217905550505050565b6000613d8982610f0c565b90508060600151600060028110613da357613da2616f37565b5b602002015173ffffffffffffffffffffffffffffffffffffffff163373ffffffffffffffffffffffffffffffffffffffff161480613e2857508060600151600160028110613df457613df3616f37565b5b602002015173ffffffffffffffffffffffffffffffffffffffff163373ffffffffffffffffffffffffffffffffffffffff16145b613e67576040517f08c379a0000000000000000000000000000000000000000000000000000000008152600401613e5e9061839a565b60405180910390fd5b60008160800151600060028110613e8157613e80616f37565b5b602002015160ff1614158015613eb7575060008160800151600160028110613eac57613eab616f37565b5b602002015160ff1614155b613ef6576040517f08c379a0000000000000000000000000000000000000000000000000000000008152600401613eed9061842c565b60405180910390fd5b613eff8161472b565b5050565b606060008203613f4a576040518060400160405280600181526020017f30000000000000000000000000000000000000000000000000000000000000008152509050614086565b600082905060005b60008214613f7c578080613f65906174ce565b915050600a82613f75919061844c565b9150613f52565b60008167ffffffffffffffff811115613f9857613f97615d22565b5b6040519080825280601f01601f191660200182016040528015613fca5781602001600182028036833780820191505090505b50905060008290505b6000861461407e57600181613fe89190617f41565b90506000600a8088613ffa919061844c565b614004919061847d565b8761400f9190617f41565b603061401b91906184bf565b905060008160f81b90508084848151811061403957614038616f37565b5b60200101907effffffffffffffffffffffffffffffffffffffffffffffffffffffffffffff1916908160001a905350600a88614075919061844c565b97505050613fd3565b819450505050505b919050565b600073ffffffffffffffffffffffffffffffffffffffff168473ffffffffffffffffffffffffffffffffffffffff16036140fa576040517f08c379a00000000000000000000000000000000000000000000000000000000081526004016140f190617db8565b60405180910390fd5b6000614104612fa2565b90506000614111856152c5565b9050600061411e856152c5565b905061412e838989858589614326565b600080600088815260200190815260200160002060008a73ffffffffffffffffffffffffffffffffffffffff1673ffffffffffffffffffffffffffffffffffffffff168152602001908152602001600020549050858110156141c5576040517f08c379a00000000000000000000000000000000000000000000000000000000081526004016141bc90617e4a565b60405180910390fd5b85810360008089815260200190815260200160002060008b73ffffffffffffffffffffffffffffffffffffffff1673ffffffffffffffffffffffffffffffffffffffff168152602001908152602001600020819055508560008089815260200190815260200160002060008a73ffffffffffffffffffffffffffffffffffffffff1673ffffffffffffffffffffffffffffffffffffffff168152602001908152602001600020600082825461427a9190617e6a565b925050819055508773ffffffffffffffffffffffffffffffffffffffff168973ffffffffffffffffffffffffffffffffffffffff168573ffffffffffffffffffffffffffffffffffffffff167fc3d58168c5ae7397731d063d5bbf3d657854427343f4c083240f7aacaa2d0f628a8a6040516142f79291906169e5565b60405180910390a461430d848a8a86868a61433c565b61431b848a8a8a8a8a61533f565b505050505050505050565b614334868686868686615516565b505050505050565b505050505050565b6143638473ffffffffffffffffffffffffffffffffffffffff166156e6565b15614513578373ffffffffffffffffffffffffffffffffffffffff1663bc197c8187878686866040518663ffffffff1660e01b81526004016143a9959493929190618549565b6020604051808303816000875af19250505080156143e557506040513d601f19601f820116820180604052508101906143e291906185c6565b60015b61448a576143f1618600565b806308c379a00361444d5750614405618622565b80614410575061444f565b806040517f08c379a00000000000000000000000000000000000000000000000000000000081526004016144449190615f3a565b60405180910390fd5b505b6040517f08c379a000000000000000000000000000000000000000000000000000000000815260040161448190618724565b60405180910390fd5b63bc197c8160e01b7bffffffffffffffffffffffffffffffffffffffffffffffffffffffff1916817bffffffffffffffffffffffffffffffffffffffffffffffffffffffff191614614511576040517f08c379a0000000000000000000000000000000000000000000000000000000008152600401614508906187b6565b60405180910390fd5b505b505050505050565b600080444284604051602001614533939291906187d6565b6040516020818303038152906040528051906020012060001c9050838161455a9190618039565b91506000820361457457600284614571919061844c565b91505b5092915050565b600073ffffffffffffffffffffffffffffffffffffffff168473ffffffffffffffffffffffffffffffffffffffff16036145ea576040517f08c379a00000000000000000000000000000000000000000000000000000000081526004016145e190618885565b60405180910390fd5b60006145f4612fa2565b90506000614601856152c5565b9050600061460e856152c5565b905061461f83600089858589614326565b8460008088815260200190815260200160002060008973ffffffffffffffffffffffffffffffffffffffff1673ffffffffffffffffffffffffffffffffffffffff168152602001908152602001600020600082825461467e9190617e6a565b925050819055508673ffffffffffffffffffffffffffffffffffffffff16600073ffffffffffffffffffffffffffffffffffffffff168473ffffffffffffffffffffffffffffffffffffffff167fc3d58168c5ae7397731d063d5bbf3d657854427343f4c083240f7aacaa2d0f6289896040516146fc9291906169e5565b60405180910390a46147138360008985858961433c565b6147228360008989898961533f565b50505050505050565b60006040518060a0016040528060076000856060015160006002811061475457614753616f37565b5b602002015173ffffffffffffffffffffffffffffffffffffffff1673ffffffffffffffffffffffffffffffffffffffff16815260200190815260200160002054815260200183608001516000600281106147b1576147b0616f37565b5b602002015160ff1681526020016147e384606001516000600281106147d9576147d8616f37565b5b60200201516116d7565b606001518152602001614811846060015160006002811061480757614806616f37565b5b6020020151610d5f565b60400151815260200161483f846060015160006002811061483557614834616f37565b5b6020020151610d5f565b60600151815250905060006040518060a0016040528060076000866060015160016002811061487157614870616f37565b5b602002015173ffffffffffffffffffffffffffffffffffffffff1673ffffffffffffffffffffffffffffffffffffffff16815260200190815260200160002054815260200184608001516001600281106148ce576148cd616f37565b5b602002015160ff16815260200161490085606001516001600281106148f6576148f5616f37565b5b60200201516116d7565b60600151815260200161492e856060015160016002811061492457614923616f37565b5b6020020151610d5f565b60400151815260200161495c856060015160016002811061495257614951616f37565b5b6020020151610d5f565b60600151815250905060006040518060400160405280600073ffffffffffffffffffffffffffffffffffffffff1673ffffffffffffffffffffffffffffffffffffffff168152602001600073ffffffffffffffffffffffffffffffffffffffff1673ffffffffffffffffffffffffffffffffffffffff168152509050600183602001511480156149f0575060018260200151145b15614b83578160400151836060015110614a3057614a2a8460600151600060028110614a1f57614a1e616f37565b5b602002015185613391565b50614b7e565b8260400151826060015110614a6b57614a658460600151600160028110614a5a57614a59616f37565b5b602002015185613391565b50614b7d565b8160600151600a846000015181548110614a8857614a87616f37565b5b90600052602060002090600502016003016000828254614aa89190617f41565b925050819055508260600151600a836000015181548110614acc57614acb616f37565b5b90600052602060002090600502016003016000828254614aec9190617f41565b925050819055506003600a846000015181548110614b0d57614b0c616f37565b5b90600052602060002090600502016002016000828254614b2d9190617f41565b925050819055506003600a836000015181548110614b4e57614b4d616f37565b5b90600052602060002090600502016002016000828254614b6e9190617f41565b92505081905550836060015190505b5b614fa0565b60018360200151148015614b9b575060028260200151145b15614d4057600082608001518360400151614bb69190617e6a565b905080846060015110614bef57614be98560600151600060028110614bde57614bdd616f37565b5b602002015186613391565b50614d3a565b6000846060015184608001511115614c0d5783604001519050614c88565b846060015182614c1d9190617f41565b90508560600151600160028110614c3757614c36616f37565b5b602002015183600060028110614c5057614c4f616f37565b5b602002019073ffffffffffffffffffffffffffffffffffffffff16908173ffffffffffffffffffffffffffffffffffffffff16815250505b80600a856000015181548110614ca157614ca0616f37565b5b9060005260206000209060050201600301819055506003600a866000015181548110614cd057614ccf616f37565b5b90600052602060002090600502016002016000828254614cf09190617f41565b925050819055506003600a856000015181548110614d1157614d10616f37565b5b90600052602060002090600502016002016000828254614d319190617e6a565b92505081905550505b50614f9f565b60028360200151148015614d58575060018260200151145b15614efd57600083608001518460400151614d739190617e6a565b905080836060015110614dac57614da68560600151600160028110614d9b57614d9a616f37565b5b602002015186613391565b50614ef7565b6000836060015185608001511115614dca5784604001519050614e45565b836060015182614dda9190617f41565b90508560600151600060028110614df457614df3616f37565b5b602002015183600060028110614e0d57614e0c616f37565b5b602002019073ffffffffffffffffffffffffffffffffffffffff16908173ffffffffffffffffffffffffffffffffffffffff16815250505b80600a866000015181548110614e5e57614e5d616f37565b5b9060005260206000209060050201600301819055506003600a866000015181548110614e8d57614e8c616f37565b5b90600052602060002090600502016002016000828254614ead9190617e6a565b925050819055506003600a856000015181548110614ece57614ecd616f37565b5b90600052602060002090600502016002016000828254614eee9190617f41565b92505081905550505b50614f9e565b60028360200151148015614f15575060028260200151145b15614f9d576003600a846000015181548110614f3457614f33616f37565b5b90600052602060002090600502016002016000828254614f549190617e6a565b925050819055506003600a836000015181548110614f7557614f74616f37565b5b90600052602060002090600502016002016000828254614f959190617e6a565b925050819055505b5b5b5b7fc6bf860cbc15f7020f73993a671f01bbb1831a8a7a12c126ca735eb632e7577581604051614fcf9190618907565b60405180910390a160008460800151600060028110614ff157614ff0616f37565b5b602002019060ff16908160ff16815250506000846080015160016002811061501c5761501b616f37565b5b602002019060ff16908160ff168152505061503b846040015185613989565b6000615064600a866060015160006002811061505a57615059616f37565b5b602002015161451b565b905080600b60086000886060015160006002811061508557615084616f37565b5b602002015173ffffffffffffffffffffffffffffffffffffffff1673ffffffffffffffffffffffffffffffffffffffff16815260200190815260200160002054815481106150d6576150d5616f37565b5b90600052602060002090600402016002018190555080600a6150f89190617f41565b600b60086000886060015160006002811061511657615115616f37565b5b602002015173ffffffffffffffffffffffffffffffffffffffff1673ffffffffffffffffffffffffffffffffffffffff168152602001908152602001600020548154811061516757615166616f37565b5b90600052602060002090600402016003018190555060006151a5600a876060015160016002811061519b5761519a616f37565b5b602002015161451b565b905080600b6008600089606001516001600281106151c6576151c5616f37565b5b602002015173ffffffffffffffffffffffffffffffffffffffff1673ffffffffffffffffffffffffffffffffffffffff168152602001908152602001600020548154811061521757615216616f37565b5b90600052602060002090600402016002018190555080600a6152399190617f41565b600b60086000896060015160016002811061525757615256616f37565b5b602002015173ffffffffffffffffffffffffffffffffffffffff1673ffffffffffffffffffffffffffffffffffffffff16815260200190815260200160002054815481106152a8576152a7616f37565b5b906000526020600020906004020160030181905550505050505050565b60606000600167ffffffffffffffff8111156152e4576152e3615d22565b5b6040519080825280602002602001820160405280156153125781602001602082028036833780820191505090505b509050828160008151811061532a57615329616f37565b5b60200260200101818152505080915050919050565b61535e8473ffffffffffffffffffffffffffffffffffffffff166156e6565b1561550e578373ffffffffffffffffffffffffffffffffffffffff1663f23a6e6187878686866040518663ffffffff1660e01b81526004016153a4959493929190618922565b6020604051808303816000875af19250505080156153e057506040513d601f19601f820116820180604052508101906153dd91906185c6565b60015b615485576153ec618600565b806308c379a0036154485750615400618622565b8061540b575061544a565b806040517f08c379a000000000000000000000000000000000000000000000000000000000815260040161543f9190615f3a565b60405180910390fd5b505b6040517f08c379a000000000000000000000000000000000000000000000000000000000815260040161547c90618724565b60405180910390fd5b63f23a6e6160e01b7bffffffffffffffffffffffffffffffffffffffffffffffffffffffff1916817bffffffffffffffffffffffffffffffffffffffffffffffffffffffff19161461550c576040517f08c379a0000000000000000000000000000000000000000000000000000000008152600401615503906187b6565b60405180910390fd5b505b505050505050565b615524868686868686615709565b600073ffffffffffffffffffffffffffffffffffffffff168573ffffffffffffffffffffffffffffffffffffffff16036155d55760005b83518110156155d35782818151811061557757615576616f37565b5b60200260200101516004600086848151811061559657615595616f37565b5b6020026020010151815260200190815260200160002060008282546155bb9190617e6a565b92505081905550806155cc906174ce565b905061555b565b505b600073ffffffffffffffffffffffffffffffffffffffff168473ffffffffffffffffffffffffffffffffffffffff16036156de5760005b83518110156156dc57600084828151811061562a57615629616f37565b5b60200260200101519050600084838151811061564957615648616f37565b5b60200260200101519050600060046000848152602001908152602001600020549050818110156156ae576040517f08c379a00000000000000000000000000000000000000000000000000000000081526004016156a5906189ee565b60405180910390fd5b8181036004600085815260200190815260200160002081905550505050806156d5906174ce565b905061560c565b505b505050505050565b6000808273ffffffffffffffffffffffffffffffffffffffff163b119050919050565b505050505050565b6040518060800160405280606081526020016000815260200160008152602001600081525090565b6040518060c001604052806000600281111561575857615757615fe1565b5b81526020016000801916815260200160608152602001615776615904565b8152602001615783615926565b8152602001600073ffffffffffffffffffffffffffffffffffffffff1681525090565b8260028101928215615812579160200282015b828111156158115782518260006101000a81548173ffffffffffffffffffffffffffffffffffffffff021916908373ffffffffffffffffffffffffffffffffffffffff160217905550916020019190600101906157b9565b5b50905061581f9190615948565b5090565b826002601f016020900481019282156158ac5791602002820160005b8382111561587d57835183826101000a81548160ff021916908360ff160217905550926020019260010160208160000104928301926001030261583f565b80156158aa5782816101000a81549060ff021916905560010160208160000104928301926001030261587d565b505b5090506158b99190615948565b5090565b6040518060a00160405280600073ffffffffffffffffffffffffffffffffffffffff1681526020016060815260200160008152602001600081526020016000151581525090565b6040518060400160405280600290602082028036833780820191505090505090565b6040518060400160405280600290602082028036833780820191505090505090565b5b80821115615961576000816000905550600101615949565b5090565b6000604051905090565b600080fd5b600080fd5b600073ffffffffffffffffffffffffffffffffffffffff82169050919050565b60006159a482615979565b9050919050565b6159b481615999565b81146159bf57600080fd5b50565b6000813590506159d1816159ab565b92915050565b6000819050919050565b6159ea816159d7565b81146159f557600080fd5b50565b600081359050615a07816159e1565b92915050565b60008060408385031215615a2457615a2361596f565b5b6000615a32858286016159c2565b9250506020615a43858286016159f8565b9150509250929050565b615a56816159d7565b82525050565b6000602082019050615a716000830184615a4d565b92915050565b600081519050919050565b600082825260208201905092915050565b6000819050602082019050919050565b600081519050919050565b600082825260208201905092915050565b60005b83811015615add578082015181840152602081019050615ac2565b60008484015250505050565b6000601f19601f8301169050919050565b6000615b0582615aa3565b615b0f8185615aae565b9350615b1f818560208601615abf565b615b2881615ae9565b840191505092915050565b615b3c816159d7565b82525050565b60006080830160008301518482036000860152615b5f8282615afa565b9150506020830151615b746020860182615b33565b506040830151615b876040860182615b33565b506060830151615b9a6060860182615b33565b508091505092915050565b6000615bb18383615b42565b905092915050565b6000602082019050919050565b6000615bd182615a77565b615bdb8185615a82565b935083602082028501615bed85615a93565b8060005b85811015615c295784840389528151615c0a8582615ba5565b9450615c1583615bb9565b925060208a01995050600181019050615bf1565b50829750879550505050505092915050565b60006020820190508181036000830152615c558184615bc6565b905092915050565b60007fffffffff0000000000000000000000000000000000000000000000000000000082169050919050565b615c9281615c5d565b8114615c9d57600080fd5b50565b600081359050615caf81615c89565b92915050565b600060208284031215615ccb57615cca61596f565b5b6000615cd984828501615ca0565b91505092915050565b60008115159050919050565b615cf781615ce2565b82525050565b6000602082019050615d126000830184615cee565b92915050565b600080fd5b600080fd5b7f4e487b7100000000000000000000000000000000000000000000000000000000600052604160045260246000fd5b615d5a82615ae9565b810181811067ffffffffffffffff82111715615d7957615d78615d22565b5b80604052505050565b6000615d8c615965565b9050615d988282615d51565b919050565b600067ffffffffffffffff821115615db857615db7615d22565b5b615dc182615ae9565b9050602081019050919050565b82818337600083830152505050565b6000615df0615deb84615d9d565b615d82565b905082815260208101848484011115615e0c57615e0b615d1d565b5b615e17848285615dce565b509392505050565b600082601f830112615e3457615e33615d18565b5b8135615e44848260208601615ddd565b91505092915050565b600060208284031215615e6357615e6261596f565b5b600082013567ffffffffffffffff811115615e8157615e80615974565b5b615e8d84828501615e1f565b91505092915050565b600060208284031215615eac57615eab61596f565b5b6000615eba848285016159c2565b91505092915050565b600060208284031215615ed957615ed861596f565b5b6000615ee7848285016159f8565b91505092915050565b600082825260208201905092915050565b6000615f0c82615aa3565b615f168185615ef0565b9350615f26818560208601615abf565b615f2f81615ae9565b840191505092915050565b60006020820190508181036000830152615f548184615f01565b905092915050565b60006080830160008301518482036000860152615f798282615afa565b9150506020830151615f8e6020860182615b33565b506040830151615fa16040860182615b33565b506060830151615fb46060860182615b33565b508091505092915050565b60006020820190508181036000830152615fd98184615f5c565b905092915050565b7f4e487b7100000000000000000000000000000000000000000000000000000000600052602160045260246000fd5b6003811061602157616020615fe1565b5b50565b600081905061603282616010565b919050565b600061604282616024565b9050919050565b61605281616037565b82525050565b6000819050919050565b61606b81616058565b82525050565b600060029050919050565b600081905092915050565b6000819050919050565b61609a81615999565b82525050565b60006160ac8383616091565b60208301905092915050565b6000602082019050919050565b6160ce81616071565b6160d8818461607c565b92506160e382616087565b8060005b838110156161145781516160fb87826160a0565b9650616106836160b8565b9250506001810190506160e7565b505050505050565b600060029050919050565b600081905092915050565b6000819050919050565b600060ff82169050919050565b6161528161613c565b82525050565b60006161648383616149565b60208301905092915050565b6000602082019050919050565b6161868161611c565b6161908184616127565b925061619b82616132565b8060005b838110156161cc5781516161b38782616158565b96506161be83616170565b92505060018101905061619f565b505050505050565b6000610100830160008301516161ed6000860182616049565b5060208301516162006020860182616062565b50604083015184820360408601526162188282615afa565b915050606083015161622d60608601826160c5565b50608083015161624060a086018261617d565b5060a083015161625360e0860182616091565b508091505092915050565b6000602082019050818103600083015261627881846161d4565b905092915050565b600067ffffffffffffffff82111561629b5761629a615d22565b5b602082029050602081019050919050565b600080fd5b60006162c46162bf84616280565b615d82565b905080838252602082019050602084028301858111156162e7576162e66162ac565b5b835b8181101561631057806162fc88826159f8565b8452602084019350506020810190506162e9565b5050509392505050565b600082601f83011261632f5761632e615d18565b5b813561633f8482602086016162b1565b91505092915050565b600067ffffffffffffffff82111561636357616362615d22565b5b61636c82615ae9565b9050602081019050919050565b600061638c61638784616348565b615d82565b9050828152602081018484840111156163a8576163a7615d1d565b5b6163b3848285615dce565b509392505050565b600082601f8301126163d0576163cf615d18565b5b81356163e0848260208601616379565b91505092915050565b600080600080600060a086880312156164055761640461596f565b5b6000616413888289016159c2565b9550506020616424888289016159c2565b945050604086013567ffffffffffffffff81111561644557616444615974565b5b6164518882890161631a565b935050606086013567ffffffffffffffff81111561647257616471615974565b5b61647e8882890161631a565b925050608086013567ffffffffffffffff81111561649f5761649e615974565b5b6164ab888289016163bb565b9150509295509295909350565b600067ffffffffffffffff8211156164d3576164d2615d22565b5b602082029050602081019050919050565b60006164f76164f2846164b8565b615d82565b9050808382526020820190506020840283018581111561651a576165196162ac565b5b835b81811015616543578061652f88826159c2565b84526020840193505060208101905061651c565b5050509392505050565b600082601f83011261656257616561615d18565b5b81356165728482602086016164e4565b91505092915050565b600080604083850312156165925761659161596f565b5b600083013567ffffffffffffffff8111156165b0576165af615974565b5b6165bc8582860161654d565b925050602083013567ffffffffffffffff8111156165dd576165dc615974565b5b6165e98582860161631a565b9150509250929050565b600081519050919050565b600082825260208201905092915050565b6000819050602082019050919050565b600061662b8383615b33565b60208301905092915050565b6000602082019050919050565b600061664f826165f3565b61665981856165fe565b93506166648361660f565b8060005b8381101561669557815161667c888261661f565b975061668783616637565b925050600181019050616668565b5085935050505092915050565b600060208201905081810360008301526166bc8184616644565b905092915050565b6166cd81615ce2565b82525050565b600060a0830160008301516166eb6000860182616091565b50602083015184820360208601526167038282615afa565b91505060408301516167186040860182615b33565b50606083015161672b6060860182615b33565b50608083015161673e60808601826166c4565b508091505092915050565b6000602082019050818103600083015261676381846166d3565b905092915050565b600081519050919050565b600082825260208201905092915050565b6000819050602082019050919050565b6000610100830160008301516167b06000860182616049565b5060208301516167c36020860182616062565b50604083015184820360408601526167db8282615afa565b91505060608301516167f060608601826160c5565b50608083015161680360a086018261617d565b5060a083015161681660e0860182616091565b508091505092915050565b600061682d8383616797565b905092915050565b6000602082019050919050565b600061684d8261676b565b6168578185616776565b93508360208202850161686985616787565b8060005b858110156168a557848403895281516168868582616821565b945061689183616835565b925060208a0199505060018101905061686d565b50829750879550505050505092915050565b600060208201905081810360008301526168d18184616842565b905092915050565b6168e281616037565b82525050565b6168f181616058565b82525050565b61690081615999565b82525050565b600060808201905061691b60008301876168d9565b61692860208301866168e8565b818103604083015261693a8185615f01565b905061694960608301846168f7565b95945050505050565b600080604083850312156169695761696861596f565b5b600083013567ffffffffffffffff81111561698757616986615974565b5b61699385828601615e1f565b925050602083013567ffffffffffffffff8111156169b4576169b3615974565b5b6169c085828601615e1f565b9150509250929050565b60006020820190506169df60008301846168f7565b92915050565b60006040820190506169fa6000830185615a4d565b616a076020830184615a4d565b9392505050565b616a1781615ce2565b8114616a2257600080fd5b50565b600081359050616a3481616a0e565b92915050565b60008060408385031215616a5157616a5061596f565b5b6000616a5f858286016159c2565b9250506020616a7085828601616a25565b9150509250929050565b616a838161613c565b8114616a8e57600080fd5b50565b600081359050616aa081616a7a565b92915050565b60008060408385031215616abd57616abc61596f565b5b6000616acb85828601616a91565b925050602083013567ffffffffffffffff811115616aec57616aeb615974565b5b616af885828601615e1f565b9150509250929050565b60006080820190508181036000830152616b1c8187615f01565b9050616b2b6020830186615a4d565b616b386040830185615a4d565b616b456060830184615a4d565b95945050505050565b60008060408385031215616b6557616b6461596f565b5b6000616b73858286016159c2565b9250506020616b84858286016159c2565b9150509250929050565b600081519050919050565b600082825260208201905092915050565b6000819050602082019050919050565b600060a083016000830151616bd26000860182616091565b5060208301518482036020860152616bea8282615afa565b9150506040830151616bff6040860182615b33565b506060830151616c126060860182615b33565b506080830151616c2560808601826166c4565b508091505092915050565b6000616c3c8383616bba565b905092915050565b6000602082019050919050565b6000616c5c82616b8e565b616c668185616b99565b935083602082028501616c7885616baa565b8060005b85811015616cb45784840389528151616c958582616c30565b9450616ca083616c44565b925060208a01995050600181019050616c7c565b50829750879550505050505092915050565b60006020820190508181036000830152616ce08184616c51565b905092915050565b600080600080600060a08688031215616d0457616d0361596f565b5b6000616d12888289016159c2565b9550506020616d23888289016159c2565b9450506040616d34888289016159f8565b9350506060616d45888289016159f8565b925050608086013567ffffffffffffffff811115616d6657616d65615974565b5b616d72888289016163bb565b9150509295509295909350565b600060a082019050616d9460008301886168f7565b8181036020830152616da68187615f01565b9050616db56040830186615a4d565b616dc26060830185615a4d565b616dcf6080830184615cee565b9695505050505050565b7f455243313135353a2061646472657373207a65726f206973206e6f742061207660008201527f616c6964206f776e657200000000000000000000000000000000000000000000602082015250565b6000616e35602a83615ef0565b9150616e4082616dd9565b604082019050919050565b60006020820190508181036000830152616e6481616e28565b9050919050565b7f4e487b7100000000000000000000000000000000000000000000000000000000600052602260045260246000fd5b60006002820490506001821680616eb257607f821691505b602082108103616ec557616ec4616e6b565b5b50919050565b7f47616d6520746f6b656e20646f65736e27742065786973742100000000000000600082015250565b6000616f01601983615ef0565b9150616f0c82616ecb565b602082019050919050565b60006020820190508181036000830152616f3081616ef4565b9050919050565b7f4e487b7100000000000000000000000000000000000000000000000000000000600052603260045260246000fd5b600081905092915050565b6000616f7c82615aa3565b616f868185616f66565b9350616f96818560208601615abf565b80840191505092915050565b6000616fae8284616f71565b915081905092915050565b7f426174746c6520646f65736e2774206578697374210000000000000000000000600082015250565b6000616fef601583615ef0565b9150616ffa82616fb9565b602082019050919050565b6000602082019050818103600083015261701e81616fe2565b9050919050565b7f506c6561736520526567697374657220506c6179657220466972737400000000600082015250565b600061705b601c83615ef0565b915061706682617025565b602082019050919050565b6000602082019050818103600083015261708a8161704e565b9050919050565b7f426174746c6520616c7265616479206578697374732100000000000000000000600082015250565b60006170c7601683615ef0565b91506170d282617091565b602082019050919050565b600060208201905081810360008301526170f6816170ba565b9050919050565b60008190508160005260206000209050919050565b60006020601f8301049050919050565b600082821b905092915050565b60006008830261715f7fffffffffffffffffffffffffffffffffffffffffffffffffffffffffffffffff82617122565b6171698683617122565b95508019841693508086168417925050509392505050565b6000819050919050565b60006171a66171a161719c846159d7565b617181565b6159d7565b9050919050565b6000819050919050565b6171c08361718b565b6171d46171cc826171ad565b84845461712f565b825550505050565b600090565b6171e96171dc565b6171f48184846171b7565b505050565b5b818110156172185761720d6000826171e1565b6001810190506171fa565b5050565b601f82111561725d5761722e816170fd565b61723784617112565b81016020851015617246578190505b61725a61725285617112565b8301826171f9565b50505b505050565b600082821c905092915050565b600061728060001984600802617262565b1980831691505092915050565b6000617299838361726f565b9150826002028217905092915050565b6172b282615aa3565b67ffffffffffffffff8111156172cb576172ca615d22565b5b6172d58254616e9a565b6172e082828561721c565b600060209050601f8311600181146173135760008415617301578287015190505b61730b858261728d565b865550617373565b601f198416617321866170fd565b60005b8281101561734957848901518255600182019150602085019450602081019050617324565b868310156173665784890151617362601f89168261726f565b8355505b6001600288020188555050505b505050505050565b7f455243313135353a2063616c6c6572206973206e6f7420746f6b656e206f776e60008201527f6572206e6f7220617070726f7665640000000000000000000000000000000000602082015250565b60006173d7602f83615ef0565b91506173e28261737b565b604082019050919050565b60006020820190508181036000830152617406816173ca565b9050919050565b7f455243313135353a206163636f756e747320616e6420696473206c656e67746860008201527f206d69736d617463680000000000000000000000000000000000000000000000602082015250565b6000617469602983615ef0565b91506174748261740d565b604082019050919050565b600060208201905081810360008301526174988161745c565b9050919050565b7f4e487b7100000000000000000000000000000000000000000000000000000000600052601160045260246000fd5b60006174d9826159d7565b91507fffffffffffffffffffffffffffffffffffffffffffffffffffffffffffffffff820361750b5761750a61749f565b5b600182019050919050565b7f506c6179657220646f65736e2774206578697374210000000000000000000000600082015250565b600061754c601583615ef0565b915061755782617516565b602082019050919050565b6000602082019050818103600083015261757b8161753f565b9050919050565b7f506c6179657220616c7265616479207265676973746572656400000000000000600082015250565b60006175b8601983615ef0565b91506175c382617582565b602082019050919050565b600060208201905081810360008301526175e7816175ab565b9050919050565b7f596f7520617265206e6f7420696e207468697320626174746c65210000000000600082015250565b6000617624601b83615ef0565b915061762f826175ee565b602082019050919050565b6000602082019050818103600083015261765381617617565b9050919050565b7f506c6179657220697320696e206120626174746c650000000000000000000000600082015250565b6000617690601583615ef0565b915061769b8261765a565b602082019050919050565b600060208201905081810360008301526176bf81617683565b9050919050565b7f426174746c6520616c7265616479207374617274656421000000000000000000600082015250565b60006176fc601783615ef0565b9150617707826176c6565b602082019050919050565b6000602082019050818103600083015261772b816176ef565b9050919050565b7f4f6e6c7920706c617965722074776f2063616e206a6f696e206120626174746c60008201527f6500000000000000000000000000000000000000000000000000000000000000602082015250565b600061778e602183615ef0565b915061779982617732565b604082019050919050565b600060208201905081810360008301526177bd81617781565b9050919050565b7f416c726561647920696e20626174746c65000000000000000000000000000000600082015250565b60006177fa601183615ef0565b9150617805826177c4565b602082019050919050565b60006020820190508181036000830152617829816177ed565b9050919050565b7f426174746c65206e6f7420737461727465642e20506c656173652074656c6c2060008201527f616e6f7468657220706c6179657220746f206a6f696e2074686520626174746c60208201527f6500000000000000000000000000000000000000000000000000000000000000604082015250565b60006178b2604183615ef0565b91506178bd82617830565b606082019050919050565b600060208201905081810360008301526178e1816178a5565b9050919050565b7f426174746c652068617320616c726561647920656e6465640000000000000000600082015250565b600061791e601883615ef0565b9150617929826178e8565b602082019050919050565b6000602082019050818103600083015261794d81617911565b9050919050565b7f596f7520617265206e6f7420696e207468697320626174746c65000000000000600082015250565b600061798a601a83615ef0565b915061799582617954565b602082019050919050565b600060208201905081810360008301526179b98161797d565b9050919050565b7f596f75206861766520616c7265616479206d6164652061206d6f766521000000600082015250565b60006179f6601d83615ef0565b9150617a01826179c0565b602082019050919050565b60006020820190508181036000830152617a25816179e9565b9050919050565b6000617a378261613c565b9150617a428361613c565b9250828203905060ff811115617a5b57617a5a61749f565b5b92915050565b60008154617a6e81616e9a565b617a788186616f66565b94506001821660008114617a935760018114617aa857617adb565b60ff1983168652811515820286019350617adb565b617ab1856170fd565b60005b83811015617ad357815481890152600182019150602081019050617ab4565b838801955050505b50505092915050565b7f2f00000000000000000000000000000000000000000000000000000000000000600082015250565b6000617b1a600183616f66565b9150617b2582617ae4565b600182019050919050565b7f2e6a736f6e000000000000000000000000000000000000000000000000000000600082015250565b6000617b66600583616f66565b9150617b7182617b30565b600582019050919050565b6000617b888285617a61565b9150617b9382617b0d565b9150617b9f8284616f71565b9150617baa82617b59565b91508190509392505050565b7f4f776e61626c653a206e6577206f776e657220697320746865207a65726f206160008201527f6464726573730000000000000000000000000000000000000000000000000000602082015250565b6000617c12602683615ef0565b9150617c1d82617bb6565b604082019050919050565b60006020820190508181036000830152617c4181617c05565b9050919050565b7f4f776e61626c653a2063616c6c6572206973206e6f7420746865206f776e6572600082015250565b6000617c7e602083615ef0565b9150617c8982617c48565b602082019050919050565b60006020820190508181036000830152617cad81617c71565b9050919050565b7f455243313135353a2069647320616e6420616d6f756e7473206c656e6774682060008201527f6d69736d61746368000000000000000000000000000000000000000000000000602082015250565b6000617d10602883615ef0565b9150617d1b82617cb4565b604082019050919050565b60006020820190508181036000830152617d3f81617d03565b9050919050565b7f455243313135353a207472616e7366657220746f20746865207a65726f20616460008201527f6472657373000000000000000000000000000000000000000000000000000000602082015250565b6000617da2602583615ef0565b9150617dad82617d46565b604082019050919050565b60006020820190508181036000830152617dd181617d95565b9050919050565b7f455243313135353a20696e73756666696369656e742062616c616e636520666f60008201527f72207472616e7366657200000000000000000000000000000000000000000000602082015250565b6000617e34602a83615ef0565b9150617e3f82617dd8565b604082019050919050565b60006020820190508181036000830152617e6381617e27565b9050919050565b6000617e75826159d7565b9150617e80836159d7565b9250828201905080821115617e9857617e9761749f565b5b92915050565b60006040820190508181036000830152617eb88185616644565b90508181036020830152617ecc8184616644565b90509392505050565b7f426174746c6520616c726561647920656e646564000000000000000000000000600082015250565b6000617f0b601483615ef0565b9150617f1682617ed5565b602082019050919050565b60006020820190508181036000830152617f3a81617efe565b9050919050565b6000617f4c826159d7565b9150617f57836159d7565b9250828203905081811115617f6f57617f6e61749f565b5b92915050565b6000819050919050565b617f90617f8b826159d7565b617f75565b82525050565b60008160601b9050919050565b6000617fae82617f96565b9050919050565b6000617fc082617fa3565b9050919050565b617fd8617fd382615999565b617fb5565b82525050565b6000617fea8285617f7f565b602082019150617ffa8284617fc7565b6014820191508190509392505050565b7f4e487b7100000000000000000000000000000000000000000000000000000000600052601260045260246000fd5b6000618044826159d7565b915061804f836159d7565b92508261805f5761805e61800a565b5b828206905092915050565b60006180758261613c565b91506180808361613c565b9250826180905761808f61800a565b5b828206905092915050565b60006180a68261613c565b915060ff82036180b9576180b861749f565b5b600182019050919050565b60006180df6180da6180d58461613c565b617181565b6159d7565b9050919050565b6180ef816180c4565b82525050565b600060608201905061810a60008301866180e6565b6181176020830185615a4d565b6181246040830184615a4d565b949350505050565b7f426174746c6520646f65736e2774206578697374000000000000000000000000600082015250565b6000618162601483615ef0565b915061816d8261812c565b602082019050919050565b6000602082019050818103600083015261819181618155565b9050919050565b7f455243313135353a2073657474696e6720617070726f76616c2073746174757360008201527f20666f722073656c660000000000000000000000000000000000000000000000602082015250565b60006181f4602983615ef0565b91506181ff82618198565b604082019050919050565b60006020820190508181036000830152618223816181e7565b9050919050565b7f43686f6963652073686f756c64206265206569746865722031206f7220322100600082015250565b6000618260601f83615ef0565b915061826b8261822a565b602082019050919050565b6000602082019050818103600083015261828f81618253565b9050919050565b7f4d616e61206e6f742073756666696369656e7420666f722061747461636b696e60008201527f6721000000000000000000000000000000000000000000000000000000000000602082015250565b60006182f2602283615ef0565b91506182fd82618296565b604082019050919050565b60006020820190508181036000830152618321816182e5565b9050919050565b7f4f6e6c7920706c617965727320696e207468697320626174746c652063616e2060008201527f6d616b652061206d6f7665000000000000000000000000000000000000000000602082015250565b6000618384602b83615ef0565b915061838f82618328565b604082019050919050565b600060208201905081810360008301526183b381618377565b9050919050565b7f506c6179657273207374696c6c206e65656420746f206d616b652061206d6f7660008201527f6500000000000000000000000000000000000000000000000000000000000000602082015250565b6000618416602183615ef0565b9150618421826183ba565b604082019050919050565b6000602082019050818103600083015261844581618409565b9050919050565b6000618457826159d7565b9150618462836159d7565b9250826184725761847161800a565b5b828204905092915050565b6000618488826159d7565b9150618493836159d7565b92508282026184a1816159d7565b915082820484148315176184b8576184b761749f565b5b5092915050565b60006184ca8261613c565b91506184d58361613c565b9250828201905060ff8111156184ee576184ed61749f565b5b92915050565b600081519050919050565b600082825260208201905092915050565b600061851b826184f4565b61852581856184ff565b9350618535818560208601615abf565b61853e81615ae9565b840191505092915050565b600060a08201905061855e60008301886168f7565b61856b60208301876168f7565b818103604083015261857d8186616644565b905081810360608301526185918185616644565b905081810360808301526185a58184618510565b90509695505050505050565b6000815190506185c081615c89565b92915050565b6000602082840312156185dc576185db61596f565b5b60006185ea848285016185b1565b91505092915050565b60008160e01c9050919050565b600060033d111561861f5760046000803e61861c6000516185f3565b90505b90565b600060443d106186af57618634615965565b60043d036004823e80513d602482011167ffffffffffffffff8211171561865c5750506186af565b808201805167ffffffffffffffff81111561867a57505050506186af565b80602083010160043d0385018111156186975750505050506186af565b6186a682602001850186615d51565b82955050505050505b90565b7f455243313135353a207472616e7366657220746f206e6f6e204552433131353560008201527f526563656976657220696d706c656d656e746572000000000000000000000000602082015250565b600061870e603483615ef0565b9150618719826186b2565b604082019050919050565b6000602082019050818103600083015261873d81618701565b9050919050565b7f455243313135353a204552433131353552656365697665722072656a6563746560008201527f6420746f6b656e73000000000000000000000000000000000000000000000000602082015250565b60006187a0602883615ef0565b91506187ab82618744565b604082019050919050565b600060208201905081810360008301526187cf81618793565b9050919050565b60006187e28286617f7f565b6020820191506187f28285617f7f565b6020820191506188028284617fc7565b601482019150819050949350505050565b7f455243313135353a206d696e7420746f20746865207a65726f2061646472657360008201527f7300000000000000000000000000000000000000000000000000000000000000602082015250565b600061886f602183615ef0565b915061887a82618813565b604082019050919050565b6000602082019050818103600083015261889e81618862565b9050919050565b600081905092915050565b6188b981616071565b6188c381846188a5565b92506188ce82616087565b8060005b838110156188ff5781516188e687826160a0565b96506188f1836160b8565b9250506001810190506188d2565b505050505050565b600060408201905061891c60008301846188b0565b92915050565b600060a08201905061893760008301886168f7565b61894460208301876168f7565b6189516040830186615a4d565b61895e6060830185615a4d565b81810360808301526189708184618510565b90509695505050505050565b7f455243313135353a206275726e20616d6f756e74206578636565647320746f7460008201527f616c537570706c79000000000000000000000000000000000000000000000000602082015250565b60006189d8602883615ef0565b91506189e38261897c565b604082019050919050565b60006020820190508181036000830152618a07816189cb565b905091905056fea26469706673582212208c720a70db9ee8a4bd1fb3c098982264cf5464bef3316fed5e1fe872e8ca901364736f6c63430008110033",
  "linkReferences": {},
  "deployedLinkReferences": {}
}